:020000040800F2
:1000000030040020AD010008530B0008C50A0008A9
:10001000510B0008B90200082D0C00080000000078
:100020000000000000000000000000008B0B000832
:10003000BB02000800000000890B00088D0B0008BF
:10004000C7010008C7010008C7010008C701000870
:10005000C7010008C7010008C7010008C701000860
:10006000C7010008C7010008C7010008C701000850
:10007000C7010008C7010008C7010008C701000840
:10008000C7010008C7010008C70100080000000000
:10009000000000000000000000000000C701000890
:1000A000C7010008C7010008C7010008C701000810
:1000B000C7010008C7010008C7010008C701000800
:1000C000C7010008C7010008C7010008C7010008F0
:1000D000C7010008C7010008C701000800000000B0
:1000E000C7010008C7010008C701000800000000A0
:1000F000000000000000000000000000C701000830
:1001000000000000C7010008C7010008C70100087F
:1001100000000000000000000000000000000000DF
:10012000C7010008C7010008C7010008C70100088F
:10013000C7010008000000000000000000000000EF
:10014000000000000000000000000000C7010008DF
:10015000C7010008C7010008C7010008C70100085F
:10016000C7010008C70100080000000000000000EF
:10017000000000000000000000000000000000007F
:1001800000000000C701000800000000000000009F
:10019000C7010008C7010008DFF80CD000F07AF8AA
:1001A000004800476D0C00083004002006488047D6
:1001B00006480047FEE7FEE7FEE7FEE7FEE7FEE74C
:1001C000FEE7FEE7FEE7FEE7110C000899010008D4
:1001D0002DE9F05F0546002092469B46884606467C
:1001E000814640241BE0284641464746224600F00F
:1001F00041F853465A46C01A914110D31146184649
:10020000224600F028F82D1A67EB01084F462246D7
:100210000120002100F01FF817EB00094E41201EBD
:10022000A4F10104DFDC484631462A464346BDE8D6
:10023000F09FD2B201E000F8012B491EFBD27047BB
:100240000022F6E710B513460A4604461946FFF7A2
:10025000F0FF204610BD202A04DB203A00FA02F10C
:10026000002070479140C2F1200320FA03F31943A4
:1002700090407047202A04DB203A21FA02F0002146
:10028000704721FA02F3D040C2F1200291400843A6
:1002900019467047064C074D06E0E06840F0010340
:1002A00094E8070098471034AC42F6D3FFF778FF84
:1002B000880E0008A80E0008FEE7704770B50446D7
:1002C00000F0E2F80546601C02D0044800780444BF
:1002D00000F0DAF8401BA042FAD370BD1C000020E9
:1002E0002DE9F84F00224FF0010803254FF00F0EC3
:1002F0000B6808FA02F42340A34271D14E68012E24
:1003000005D0022E03D0112E01D0122E15D18668F1
:10031000570005FA07FC26EA0C06D1F80CC00CFAC7
:1003200007FC4CEA060CC0F808C04668A6430C79E6
:10033000C4F30014944034434460C668570005FA7F
:1003400007FC8C6826EA0C06BC403443C4604C6849
:10035000022C01D0122C13D1D40800EB8404A34644
:10036000D4F8209054074FEAD46A0EFA0AF629EA24
:1003700006090E6906FA0AF646EA0906CBF8206075
:1003800004680E7924EA0C0406F00306BE402643F6
:1003900006604C68E40056D52E4C266846F480462C
:1003A0002660246822F0030604F4804400942A4C5A
:1003B0003444A446D4F808489607370F0EFA07F6D7
:1003C000B443264EB04201D1002615E0244EB0427F
:1003D00001D1012610E0234EB04202D102260BE0EB
:1003E00031E0214EB04201D1032605E01F4EB0425C
:1003F00001D1042600E00726BE402643CCF8086859
:100400001B4E34684F689C43FF0300D51C43346087
:10041000174E361D34684F689C43BF0300D51C43FC
:100420003460134E083634684F689C43FF0200D591
:100430001C4334600E4E0C3634684F689C43BF0238
:1004400000D51C433460521C102AFFF451AFBDE8A4
:10045000F88F0000443802400030014000000240A4
:100460000004024000080240000C0240001002405C
:10047000003C01400069084000D0012070470AB1EB
:10048000816170470904FBE70148806870470000FC
:100490001C00002002488168027811448160704786
:1004A0001C0000200B4810B5016841F40071016088
:1004B000016841F480610160016841F4807101606C
:1004C000032000F061F8002000F006F800F024F8A6
:1004D000002010BD003C024070B50D4D04464FF4A5
:1004E0007A712878B1FBF0F00A490968B1FBF0F0A5
:1004F00000F0D4FA48B9102C07D200222146501E31
:1005000000F022F800206C6070BD012070BD00007A
:100510001C000020280000200A4808B5016841F4AA
:1005200080410160006800F4804000900548001F91
:10053000016841F080510160006800F08050009037
:1005400008BD000044380240F0B40E4B1B680C4656
:10055000C3F30223C3F10705042D00D90425191D97
:10056000072901D2002300E0DB1E012606FA05F16F
:10057000491E214099409E40761E16403143F0BCF2
:1005800000F055BB0CED00E0064900F007020868DA
:100590004FF6FF03184040EA0220034A1043086068
:1005A000704700000CED00E00000FA052DE9F0476F
:1005B0000E46050065D0DFF81481D8F80000F7B2C8
:1005C00000F00F00B04207D288F80070D8F80000A1
:1005D00000F00F00B04254D128683D4C810712D57D
:1005E000400703D5206840F4E050206028780007D9
:1005F00003D5206840F4604020602068A96820F09E
:10060000F000084320602878C0072DD03049686882
:100610000839012812D0022813D0032811D0096804
:10062000890700292DDA216821F0030101432160A7
:10063000FFF72AFF814641F2883A0EE009688903F4
:10064000EFE709688901ECE7FFF71EFFA0EB09015E
:10065000514502D90320BDE8F0872068696800F0A1
:100660000C00B0EB810FEFD1D8F80010404601F03C
:100670000F01B14207D90770006800F00F00B042C7
:1006800001D00120E7E72878400705D52068E96810
:1006900020F4E050084320602878000706D5206841
:1006A000296920F4604040EAC100206000F018F899
:1006B0002168084AC1F30311515CC840064908602B
:1006C00006480068FFF708FF0020C4E7003C02402E
:1006D00008380240780E0008280000202000002082
:1006E000154810B5006810F00C02144813D04110E2
:1006F000042A0FD0082A0ED10F4C241F2268236829
:1007000002F03F025B0207D52068C0F38810A0FB0F
:10071000010106E0084610BD2168C1F38811A1FB64
:1007200000010023FFF754FD2168C1F30141491C7A
:100730004900B0FBF1F010BD083802400024F4007D
:100740002DE9F84F04006ED02078DFF83C93C00705
:10075000A9F104054AD009F104000168C1F381013F
:10076000012908D00068C0F3810002280AD1D9F815
:100770000000400206D52868800337D5606800284D
:10078000E1D033E06068B0F5803F10D0B0F5A02F25
:10079000286810D020F480302860286820F4802059
:1007A00028606068A8B1FFF76FFE06460DE0286874
:1007B00040F48030F4E740F480202860F7E700BF81
:1007C000FFF762FE801B642873D828688003F7D582
:1007D0000CE0FFF759FE064605E000BFFFF754FEA8
:1007E000801B6428F0D828688003F7D42078DFF8CD
:1007F0009C8280074FF0000A3ED5A348001D016887
:1008000011F00C0F08D00068C0F3810002280BD152
:10081000D9F80000400207D42868800716D5E068A0
:10082000012800D112E02BE1E068B8B10120C8F83E
:100830000000FFF729FE064605E000BFFFF724FE93
:10084000801B0228C0D828688007F7D5286821694E
:1008500020F0F80040EAC10028600DE0C8F800A0D0
:10086000FFF712FE064604E0FFF70EFE801B02288B
:100870001FD828688007F7D42078000722D5824E39
:1008800083486169703671B101210160FFF7FCFD99
:10089000074604E0FFF7F8FDC01B022809D83068BE
:1008A0008007F7D50EE0C0F800A0FFF7EDFD074682
:1008B00005E082E0FFF7E8FDC01B02287DD8306824
:1008C0008007F7D42078400768D5DFF8BCB100274F
:1008D0000BF13C0BDBF80000C0000BD4DBF8001080
:1008E00041F08051CBF80010DBF80000012700F048
:1008F00080500090674E3068C00510D4306840F4D6
:1009000080703060FFF7C0FD009005E0FFF7BCFD90
:100910000099401A022850D83068C005F6D55A4EC2
:10092000A0686C3601280FD00528306810D020F060
:1009300001003060306820F004003060A068B8B179
:10094000FFF7A2FD00900FE0306840F00100F4E7EF
:1009500040F004003060F7E7FFF796FD0099411A78
:1009600041F28830814266D830688007F4D50EE0C5
:10097000FFF78AFD009007E0FFF786FD0099411A16
:1009800041F28830814256D830688007F4D42FB1C4
:10099000DBF8001021F08051CBF80010A069C8B33B
:1009A0003949091D0968C1F3810102294AD0022889
:1009B000504607D0C8F8600000E03CE0FFF764FD57
:1009C00004463BE04746C8F86000FFF75DFD064679
:1009D00005E000BFFFF758FD801B02282BD82868D0
:1009E0008001F7D4D4E907010843A16A2A4A4908DB
:1009F00002EB0141626A41EA8211084394F82C102B
:100A000040EA0161C9F8001001203866FFF73CFD9B
:100A1000044606E036E000BFFFF736FD001B022863
:100A200009D828688001F7D52CE000BFFFF72CFD1E
:100A3000001B022802D90320BDE8F88F2868800136
:100A4000F4D41FE00128F7D0D9F80000E26900F4DF
:100A50008001914214D1226A00F03F0191420FD1EE
:100A600047F6C071626A0140914209D1A26A00F45E
:100A70004031914204D1E16A00F07060884201D0B7
:100A80000120D9E70020D7E70438024000004742A0
:100A9000800E4742007000400000FFFF10B5401E6E
:100AA000B0F1807F01D3012010BD4FF0E0246061E0
:100AB0000F21601700F0BBF80020A0610720206123
:100AC000002010BDFEE7000030B587B01421684655
:100AD000FFF7B6FB1B480024016841F0800101606C
:100AE000016801F080010591016841F00101016098
:100AF000016801F001010591016841F00801016000
:100B00000068114D00F00800059000224FF480515C
:100B10002846FFF7B4FC0320CDE900040220029030
:100B200069460A48FFF7DCFB4FF440500090012073
:100B3000CDE90104694628460394FFF7D1FB07B0CD
:100B400030BD000030380240000C0240000002407E
:100B5000FEE770472DE9F0410F460A4D1646044660
:100B6000014601222846FFF78AFC3846FFF7A6FB1C
:100B7000002221462846FFF782FC3046BDE8F041BE
:100B8000FFF79CBB000C024070477047FFF782BC28
:100B900030B593B030216846FFF752FB14210CA802
:100BA000FFF74EFB18480025016841F080510160B5
:100BB000006800F0805011901448016841F44041F1
:100BC00001600068022400F4404011900120009070
:100BD000000401908001CDE9064008AA04206421A8
:100BE00082E813000B906846FFF7AAFD0CA90F20BE
:100BF00081E83100E002CDE90F0503210CA8FFF7E1
:100C0000D5FC13B030BD00004038024000700040F9
:100C10000548016841F47001016003494FF000602C
:100C2000803908607047000088ED00E0FEE70907A2
:100C3000090E002804DB00F1E02080F80014704762
:100C400000F00F0000F1E02080F8141D704702E072
:100C500008C8121F08C1002AFAD170477047002047
:100C600001E001C1121F002AFBD17047FFF71AFCF7
:100C7000FFF78EFF4FF48059002249467B48FFF76B
:100C8000FEFBFFF721FF0126794D7A4C4FF4005B04
:100C90004FF0140800274FF4405A02212846FFF76E
:100CA000E9FB012876D1676146E0A088401C80B24C
:100CB000A0806428C4E9046725D3E08838B1002007
:100CC000E080A78002212846FFF7D4FB15E0012031
:100CD000F6E71420FFF7F2FA666105E01420FFF74B
:100CE000EDFA6069012808D002212846FFF7C2FB0F
:100CF000012802D1E0880028F0D002212846FFF721
:100D0000B9FB012802D0E08820B109E0E088002882
:100D1000DFD005E0A0890A2280B21146FFF71AFF52
:100D2000E088012808D1A089002281B24F48FFF74E
:100D3000A6FB1420FFF7C2FA02212846FFF79AFB10
:100D40000128B2D0A780E08828B9A068401CA06024
:100D5000022800DDA7606169A068084306D100226F
:100D600059464248C4F80C90FFF789FBA068012857
:100D700008D1606968B9002249463C48C4F80CB003
:100D8000FFF77DFBA068022803D1606908B9C4F8A9
:100D90000CA0676101212846FFF76CFB012819D0E0
:100DA0003AE0022020616088401C80B260806428A4
:100DB00008D32088401D80B22080142801D3A4F8D5
:100DC000008067802088C0F11401CAB2C1B25046C9
:100DD000FFF7C0FE01212846FFF74CFB0128E0D0B9
:100DE000A16911B1012903D005E02088401D01E06F
:100DF0002088401F208067802088142804D3A4F80E
:100E0000008004E0A06107E0012805D8278009B12F
:100E10000020F7E70120F5E72069012809D0022822
:100E20007FF43BAF2088B0B1142816D3012251467D
:100E30000DE0E08828B9A0890A2280B21146FFF7A8
:100E400089FEE0880128EBD1A089002281B2074801
:100E5000FFF715FB21E70022E9E7C0F11401CAB250
:100E6000C1B25046FFF776FE17E70000000C0240C3
:100E70000000024000000020000000000000000010
:100E80000102030406070809A80E0008000000205C
:100E90002C0000004E0C0008D40E00082C0000208E
:100EA000040400005E0C00080000000000000000C8
:100EB000FFFFFFFF00000000000000000000000036
:100EC0000000000001000000100000000000000011
:040ED0000024F40006
:040000050800019955
:00000001FF
