:020000040800F2
:1000000098060020AD010008CB0F0008610F000822
:10001000C90F0008F50200083D13000800000000A9
:10002000000000000000000000000000CF0F0008EA
:10003000F702000800000000CD0F0008D10F0008F3
:10004000C7010008C7010008C7010008C701000870
:10005000C7010008C7010008C7010008C701000860
:10006000C7010008C7010008C7010008C701000850
:10007000C7010008C7010008C7010008C701000840
:10008000C7010008C7010008C70100080000000000
:10009000000000000000000000000000C701000890
:1000A000C7010008C7010008C7010008C701000810
:1000B000C7010008C7010008C7010008C701000800
:1000C000C7010008C7010008C7010008C7010008F0
:1000D000C7010008251300083113000800000000C4
:1000E000C7010008C7010008C701000800000000A0
:1000F000000000000000000000000000C701000830
:1001000000000000C7010008C7010008C70100087F
:1001100000000000000000000000000000000000DF
:10012000C7010008C7010008C7010008C70100088F
:10013000C7010008000000000000000000000000EF
:10014000000000000000000000000000C7010008DF
:10015000C7010008C7010008C7010008C70100085F
:10016000C7010008C70100080000000000000000EF
:10017000000000000000000000000000000000007F
:1001800000000000C701000800000000000000009F
:10019000C7010008C7010008DFF80CD000F098F88C
:1001A000004800473D150008980600200648804793
:1001B00006480047FEE7FEE7FEE7FEE7FEE7FEE74C
:1001C000FEE7FEE7FEE7FEE755100008990100088C
:1001D0002DE9F05F0546002092469B46884606467C
:1001E000814640241BE0284641464746224600F00F
:1001F0005EF853465A46C01A914110D3114618462C
:10020000224600F045F82D1A67EB01084F462246BA
:100210000120002100F03CF817EB00094E41201EA0
:10022000A4F10104DFDC484631462A464346BDE8D6
:10023000F09FD2B201E000F8012B491EFBD27047BB
:100240000022F6E710B513460A4604461946FFF7A2
:10025000F0FF204610BD421C10F8011B0029FBD105
:10026000801A704730B50B46014600202022012439
:1002700009E021FA02F59D4205D303FA02F5491B74
:1002800004FA02F52844151EA2F10102F1DC30BD8A
:10029000202A04DB203A00FA02F100207047914046
:1002A000C2F1200320FA03F3194390407047202A3B
:1002B00004DB203A21FA02F00021704721FA02F310
:1002C000D040C2F120029140084319467047000017
:1002D000064C074D06E0E06840F0010394E8070093
:1002E00098471034AC42F6D3FFF75AFF04160008C3
:1002F00024160008FEE77047704790F83510022971
:1003000003D08021416501207047052180F8351018
:100310000068016821F001010160002070470000C1
:100320002DE9F84F00224FF0010803254FF00F0E82
:100330000B6808FA02F42340A34271D14E68012EE3
:1003400005D0022E03D0112E01D0122E15D18668B1
:10035000570005FA07FC26EA0C06D1F80CC00CFA87
:1003600007FC4CEA060CC0F808C04668A6430C79A6
:10037000C4F30014944034434460C668570005FA3F
:1003800007FC8C6826EA0C06BC403443C4604C6809
:10039000022C01D0122C13D1D40800EB8404A34604
:1003A000D4F8209054074FEAD46A0EFA0AF629EAE4
:1003B00006090E6906FA0AF646EA0906CBF8206035
:1003C00004680E7924EA0C0406F00306BE402643B6
:1003D00006604C68E40056D52E4C266846F48046EC
:1003E0002660246822F0030604F4804400942A4C1A
:1003F0003444A446D4F808489607370F0EFA07F697
:10040000B443264EB04201D1002615E0244EB0423E
:1004100001D1012610E0234EB04202D102260BE0AA
:1004200031E0214EB04201D1032605E01F4EB0421B
:1004300001D1042600E00726BE402643CCF8086818
:100440001B4E34684F689C43FF0300D51C43346047
:10045000174E361D34684F689C43BF0300D51C43BC
:100460003460134E083634684F689C43FF0200D551
:100470001C4334600E4E0C3634684F689C43BF02F8
:1004800000D51C433460521C102AFFF451AFBDE864
:10049000F88F000044380240003001400000024064
:1004A0000004024000080240000C0240001002401C
:1004B000003C0140014880687047000014000020A3
:1004C000024881680278114481607047140000205E
:1004D0000B4810B5016841F400710160016841F4F6
:1004E00080610160016841F480710160032000F0C7
:1004F0006FF8002000F006F800F024F8002010BD8E
:10050000003C024070B50D4D04464FF47A712878D6
:10051000B1FBF0F00A490968B1FBF0F000F002FB12
:1005200048B9102C07D200222146501E00F030F8A6
:1005300000206C6070BD012070BD00001400002020
:10054000200000200A4808B5016841F4804101609C
:10055000006800F4804000900548001F016841F0E9
:1005600080510160006800F08050009008BD0000DC
:1005700044380240002809DB00F01F0201219140AD
:100580004009800000F1E020C0F800117047000031
:10059000F0B40E4B1B680C46C3F30223C3F10705EE
:1005A000042D00D90425191D072901D2002300E0DC
:1005B000DB1E012606FA05F1491E214099409E40A6
:1005C000761E16403143F0BC00F0CEBE0CED00E0CC
:1005D000064900F0070208684FF6FF03184040EA9A
:1005E0000220034A10430860704700000CED00E051
:1005F0000000FA052DE9F0470E46050065D0DFF84A
:100600001481D8F80000F7B200F00F00B04207D212
:1006100088F80070D8F8000000F00F00B04254D104
:1006200028683D4C810712D5400703D5206840F467
:10063000E05020602878000703D5206840F460402F
:1006400020602068A96820F0F00008432060287826
:10065000C0072DD0304968680839012812D0022817
:1006600013D0032811D00968890700292DDA2168E1
:1006700021F0030101432160FFF71CFF814641F295
:10068000883A0EE009688903EFE709688901ECE719
:10069000FFF710FFA0EB0901514502D90320BDE887
:1006A000F0872068696800F00C00B0EB810FEFD193
:1006B000D8F80010404601F00F01B14207D9077089
:1006C000006800F00F00B04201D00120E7E7287871
:1006D000400705D52068E96820F4E0500843206011
:1006E0002878000706D52068296920F4604040EA90
:1006F000C100206000F038F82168084AC1F30311F6
:10070000515CC8400649086006480068FFF7FAFED9
:100710000020C4E7003C024008380240EC15000805
:1007200020000020180000200448054900680968DE
:10073000044AC1F38221515CC84070472000002068
:1007400008380240FC15000804480549006809689B
:10075000044AC1F34231515CC84070472000002078
:1007600008380240FC150008154810B5006810F064
:100770000C02144813D04110042A0FD0082A0ED1BD
:100780000F4C241F2268236802F03F025B0207D54A
:100790002068C0F38810A0FB010106E0084610BDE8
:1007A0002168C1F38811A1FB00010023FFF710FDB0
:1007B0002168C1F30141491C4900B0FBF1F010BDB3
:1007C000083802400024F4002DE9F84F04006ED0F0
:1007D0002078DFF83C93C007A9F104054AD009F15D
:1007E00004000168C1F38101012908D00068C0F349
:1007F000810002280AD1D9F80000400206D52868F5
:10080000800337D560680028E1D033E06068B0F538
:10081000803F10D0B0F5A02F286810D020F4803091
:100820002860286820F4802028606068A8B1FFF75D
:1008300041FE06460DE0286840F48030F4E740F4BD
:1008400080202860F7E700BFFFF734FE801B642894
:1008500073D828688003F7D50CE0FFF72BFE064617
:1008600005E000BFFFF726FE801B6428F0D828684B
:100870008003F7D42078DFF89C8280074FF0000ACD
:100880003ED5A348001D016811F00C0F08D0006888
:10089000C0F3810002280BD1D9F80000400207D430
:1008A0002868800716D5E068012800D112E02BE106
:1008B000E068B8B10120C8F80000FFF7FBFD06466C
:1008C00005E000BFFFF7F6FD801B0228C0D82868AE
:1008D0008007F7D52868216920F0F80040EAC100B8
:1008E00028600DE0C8F800A0FFF7E4FD064604E02C
:1008F000FFF7E0FD801B02281FD828688007F7D487
:100900002078000722D5824E83486169703671B124
:1009100001210160FFF7CEFD074604E0FFF7CAFDA5
:10092000C01B022809D830688007F7D50EE0C0F850
:1009300000A0FFF7BFFD074605E082E0FFF7BAFD24
:10094000C01B02287DD830688007F7D42078400784
:1009500068D5DFF8BCB100270BF13C0BDBF80000D9
:10096000C0000BD4DBF8001041F08051CBF8001030
:10097000DBF80000012700F080500090674E3068DF
:10098000C00510D4306840F480703060FFF792FDED
:10099000009005E0FFF78EFD0099401A022850D81C
:1009A0003068C005F6D55A4EA0686C3601280FD0C5
:1009B0000528306810D020F001003060306820F049
:1009C00004003060A068B8B1FFF774FD00900FE03C
:1009D000306840F00100F4E740F004003060F7E7D1
:1009E000FFF768FD0099411A41F28830814266D8CC
:1009F00030688007F4D50EE0FFF75CFD009007E05B
:100A0000FFF758FD0099411A41F28830814256D8CB
:100A100030688007F4D42FB1DBF8001021F080514A
:100A2000CBF80010A069C8B33949091D0968C1F3A2
:100A3000810102294AD00228504607D0C8F8600038
:100A400000E03CE0FFF736FD04463BE04746C8F8CF
:100A50006000FFF72FFD064605E000BFFFF72AFD07
:100A6000801B02282BD828688001F7D4D4E907011D
:100A70000843A16A2A4A490802EB0141626A41EA35
:100A80008211084394F82C1040EA0161C9F8001063
:100A900001203866FFF70EFD044606E036E000BF91
:100AA000FFF708FD001B022809D828688001F7D548
:100AB0002CE000BFFFF7FEFC001B022802D9032038
:100AC000BDE8F88F28688001F4D41FE00128F7D032
:100AD000D9F80000E26900F48001914214D1226A41
:100AE00000F03F0191420FD147F6C071626A0140A8
:100AF000914209D1A26A00F44031914204D1E16AE5
:100B000000F07060884201D00120D9E70020D7E7CB
:100B10000438024000004742800E47420070004007
:100B20000000FFFF10B5401EB0F1807F01D301200F
:100B300010BD4FF0E02460610F21601700F014FC3D
:100B40000020A06107202061002010BD7047000038
:100B500070B5026804461068D168536910F00F0F31
:100B600052D003F0010501F490762E435FD0C20706
:100B700005D0CA0503D5E26B42F00102E2634207E9
:100B800005D5DA0703D0E26B42F00202E263820786
:100B900005D5DA0703D0E26B42F00402E2630207F4
:100BA00007D501F020022A4303D0E26B42F008028D
:100BB000E263E26B002A33D0800604D5880602D5B2
:100BC000204600F06BFA20684069E16BC0F38010AA
:100BD000090700D428B3204600F052FA2068416982
:100BE00049061AD5416921F040014161606BA0B10D
:100BF0001B490165606BFFF780FB002810D0606B1C
:100C0000016DBDE870400847830610D58B060ED5F0
:100C10002046BDE8704000F041BA2046FFF796FF3D
:100C200070BD2046FFF792FF0020E06370BD030611
:100C300006D50B0604D52046BDE8704000F00EBB7B
:100C40004006F3D54806F1D5D168204621F0400191
:100C5000D160202184F8391000F081F970BD0000C6
:100C60007110000870B5040004D094F83900002514
:100C700010B106E0012070BD84F83850204600F025
:100C800023F8242084F839002068C16821F4005139
:100C9000C160204600F04EFA2068016921F49041BD
:100CA00001612068416921F02A0141612068C16821
:100CB00041F40051C160E563202084F8390084F8D4
:100CC0003A00002070BD0000F0B587B00446142142
:100CD0006846FFF7B5FA2A4F236800222949022403
:100CE000032507262848BB4221D1264B14331F6811
:100CF00047F010071F601B6803F0100305930B6893
:100D000043F001030B60096802AB01F0010105919A
:100D10006902CDE9001483E864006946FFF700FB2F
:100D2000002211462520FFF733FC252023E0174F32
:100D3000BB4222D1134B10331F6847F400371F60AA
:100D40001B6803F4003305930B6843F001030B6049
:100D5000096802AB01F0010105910C21CDE90014F5
:100D600083E864006946FFF7DBFA0022114626207B
:100D7000FFF70EFC2620FFF7FDFB07B0F0BD0000DB
:100D800000100140303802400000024000440040A2
:100D900090F83A30202B22D1F9B1F2B190F83830E6
:100DA000012B1CD081628285C2850021C163222271
:100DB00080F83A2080F838100168CA6842F48072DE
:100DC000CA6001684A6942F001024A610068C1686C
:100DD00041F02001C16000207047012070470220CF
:100DE000704700002DE9FE432A49006809688842DF
:100DF0004ED1294C294F4FF001082078002510B121
:100E0000012804D02AE084F800806570A560234E94
:100E1000A068643EE278325421A16846303A00F07E
:100E20008FFAA168705CA0F13002092A08D86268C4
:100E30006FF02F0302EB820203EB42020244626076
:100E4000202809D12069626847F82020401C65608D
:100E50002061E068401CE060491CA160E0787028D7
:100E60000DD1207801280AD1811E206947F8201071
:100E7000401C2061257084F8018084F8028003B052
:100E80000549BDE8F0430122C91C0248FFF780BFB5
:100E9000BDE8FE83580200200000002088000020EA
:100EA000256400002DE9F843044690F839001F46F8
:100EB00016460D46202850D1B5B1AEB194F8380091
:100EC00001284AD0012084F838004FF00008C4F807
:100ED0003C80212084F83900FFF7ECFAA684814693
:100EE000E68484F8388026E00120BDE8F883E08CB1
:100EF000401EE084A0684B46B0F5805F4FF00002D2
:100F00004FF080012046009703D000F0D8F9E8B9EF
:100F10000DE000F0D4F9C8B928882168C0F30800B2
:100F20004860206908B16D1C05E0AD1C03E0216834
:100F300015F8010B4860E08C0028D8D14B46002200
:100F400040212046009700F0BAF908B10320CCE711
:100F5000202084F839000020C7E70220C5E7704749
:100F6000FEE70000094808B5016841F08001016012
:100F7000016801F080010091016841F00101016008
:100F8000006800F00100009008BD00003038024009
:100F90000C4810B50A4901604FF4E131416000216D
:100FA00081600C22C160C0E904128161C161FFF758
:100FB00059FE002803D0BDE81040FFF79DB910BDD1
:100FC0000044004058020020FEE770477047704719
:100FD000FFF776BA30B593B030216846FFF730F9A5
:100FE00014210CA8FFF72CF918480025016841F0DE
:100FF00080510160006800F0805011901448016831
:1010000041F4404101600068022400F44040119026
:1010100001200090000401908001CDE9064008AA5B
:101020000420482182E813000B906846FFF7CCFBB0
:101030000CA90F2081E83100E002CDE90F05022163
:101040000CA8FFF7D7FA13B030BD000040380240BB
:10105000007000400548016841F4700101600349D7
:101060004FF00060803908607047000088ED00E0B4
:1010700010B5806B0021C185C184FFF767FD10BDED
:101080000168CA6822F49072CA6001684A6922F055
:1010900001024A61202180F83A10704710B590F89B
:1010A0003A10222901D0022010BD8168B1F5805F7D
:1010B00011D00169002901681FD0496801F07F0340
:1010C000816A4A1C82620B70C18D491E0904090C99
:1010D000C18518D02BE00269816A002A0268526833
:1010E00005D0D2B20A80816A491C8162ECE7C2F362
:1010F00008020A80816A891CF7E74A68816A4B1CEA
:1011000083620A70E0E70168CA6822F02002CA60C0
:101110000168CA6822F48072CA6001684A6922F0D4
:1011200001024A61202180F83A10FFF75BFE00209F
:1011300010BD00002DE9F041044600680169E26835
:1011400021F44051114301612169A068E26908431B
:101150006169114308432168CA6849F20C639A43E4
:101160000243CA6020684169A26921F440711143B9
:101170004161E069192764253226B0F5004F354AF0
:10118000354920684FF0000806D0884201D09042CF
:1011900036D1FFF7D9FA35E0884201D0904202D12A
:1011A000FFF7D2FA01E0FFF7BFFA61684A18A0FB27
:1011B000070148EB0803FFF70BF80146B0FBF5F019
:1011C0000201B1FBF5F06FF01803584301EB80000A
:1011D00006EBC000B0FBF5F000F0F80002EB4002B7
:1011E000B1FBF5F0584301EB800006EBC000B0FB0B
:1011F000F5F000F00700216810448860BDE8F08138
:10120000FFF792FA61688B0F8A00A0FB0701FEF7D7
:10121000DFFF0146B0FBF5F06FF01802504301EB21
:10122000800006EB0010B0FBF5F000F0F002B1FB1F
:10123000F5F002EB0012B1FBF5F06FF01803584324
:1012400001EB800006EB0010B0FBF5F000F00F00A2
:10125000D1E70000001401400010014090F839105F
:10126000212901D0022070478168B1F5805F016AB1
:101270000BD04A1C0262026809785160C18C491E79
:101280000904090CC1840ED017E009880268C1F373
:101290000801516001690029016A02D0491C0162FC
:1012A000ECE7891CFBE70168CA6822F08002CA608B
:1012B0000068C16841F04001C160002070472DE91D
:1012C000F041984617460E460446069D1DE0681CF0
:1012D0001BD02DB1FFF7EEF8A0EB0800A84214D9FF
:1012E0002068C16821F4D071C1602068416921F093
:1012F00001014161202084F8390084F83A0000207F
:1013000084F838000320BDE8F0812068006836EAE0
:10131000000004D00020B842D9D00020F3E701201B
:10132000F9E700000148FFF713BC00001802002095
:101330000148FFF70DBC000058020020FEE7000046
:101340000FB4084B10B504A902AA039800F02CF8BA
:10135000044602A9002000F0D1F8204610BC5DF838
:1013600014FB0000FD1400080907090E002804DB27
:1013700000F1E02080F80014704700F00F0000F149
:10138000E02080F8141D704702E008C8121F08C151
:10139000002AFAD170477047002001E001C1121FF6
:1013A000002AFBD1704700002DE9FF4F89B09B4612
:1013B0000446002506E025280BD05A460B99904795
:1013C000641C6D1C20780028F5D10DB02846BDE8BE
:1013D000F08F0027B8460122474900E0074314F880
:1013E000013F203B02FA03F00842F7D120782E2873
:1013F00019D114F8010F47F004072A280ED06FF016
:101400002F022078A0F1300109290CD808EB8801BF
:1014100002EB410100EB0108641CF2E70A98641C2E
:1014200050F8048B0A9020780028CED0642808D089
:10143000692806D075281ED05A460B9990476D1C16
:1014400058E00A994FF00A0901C90A91002802DA06
:1014500040422D2102E0390504D52B218DF82010C2
:10146000012103E0F90704D02021F7E78A4608AEFE
:101470000DE00021FAE70A994FF00A0901C90A9123
:10148000F7E74946FEF7EEFE303106F8011D002869
:10149000F7D1ADEB060000F12009780701D44FF039
:1014A0000108C84502DDA8EB090000E000208046E5
:1014B000002706E008A85A46C05D0B9990476D1CAE
:1014C0007F1C5745F6DB04E030205A460B999047C5
:1014D0006D1CB8F10001A8F10108F5DC05E016F873
:1014E000010B5A460B9990476D1CB9F10001A9F107
:1014F0000109F4DC641C65E7092801000A68531C33
:101500000B6010707047F0B500234C1E13E00022F2
:10151000CE1A761E0CE000EB820C50F82250DCF85C
:101520000470BD4203DD40F82270CCF80450521C18
:101530009642F0DC5B1CA342E9DBF0BD0EB5FEF782
:10154000C7FFFFF747FDFFF70DFDFFF721FD012264
:1015500018491948FFF71CFC164CE41EA078012816
:10156000FCD16078012816D114A000F02FF815489E
:10157000E168FFF7C8FF0025124E09E056F8252064
:1015800011A16846FFF7DCFE684600F01FF86D1CED
:10159000E0688542F2DB0025A5600A4825616421E8
:1015A0006438E560FEF74CFE64210648FEF748FE0D
:1015B000A570D3E7030000205802002046696E6939
:1015C00073680A00880000200A25640010B50446EC
:1015D000FEF741FE2146C2B2BDE810404FF4FA6367
:1015E0000148FFF75FBC0000580200200000000027
:1015F00000000000010203040607080900000000C3
:10160000010203042416000800000020240000004A
:101610008813000848160008240000207406000003
:101620009813000800000000000000000000000007
:101630000000000000000000010000001000000099
:08164000000000000024F4008A
:040000050800019955
:00000001FF
