:020000040800F2
:1000000070040020AD0100082B150008DD10000869
:1000100029150008B9020008D115000800000000E9
:100020000000000000000000000000002F15000884
:10003000D1030008000000002D150008311500084C
:10004000C7010008C7010008C7010008C701000870
:10005000C7010008C7010008C7010008C701000860
:10006000C7010008C7010008C7010008C701000850
:10007000C7010008C7010008C7010008C701000840
:10008000C7010008C7010008C70100080000000000
:10009000000000000000000000000000C701000890
:1000A000C7010008C7010008C7010008C701000810
:1000B000C7010008C7010008C7010008C701000800
:1000C000C7010008C7010008C7010008C7010008F0
:1000D000C7010008C7010008C701000800000000B0
:1000E000C7010008C7010008C701000800000000A0
:1000F000000000000000000000000000C701000830
:1001000000000000C7010008C7010008C70100087F
:1001100000000000000000000000000000000000DF
:10012000C7010008C7010008C7010008C70100088F
:10013000C7010008000000000000000000000000EF
:10014000000000000000000000000000C7010008DF
:10015000C7010008C7010008C7010008C70100085F
:10016000C7010008C70100080000000000000000EF
:10017000000000000000000000000000000000007F
:1001800000000000C701000800000000000000009F
:10019000C7010008C7010008DFF80CD000F07AF8AA
:1001A00000480047391600087004002006488047C0
:1001B00006480047FEE7FEE7FEE7FEE7FEE7FEE74C
:1001C000FEE7FEE7FEE7FEE7B51500089901000827
:1001D0002DE9F05F0546002092469B46884606467C
:1001E000814640241BE0284641464746224600F00F
:1001F00041F853465A46C01A914110D31146184649
:10020000224600F028F82D1A67EB01084F462246D7
:100210000120002100F01FF817EB00094E41201EBD
:10022000A4F10104DFDC484631462A464346BDE8D6
:10023000F09FD2B201E000F8012B491EFBD27047BB
:100240000022F6E710B513460A4604461946FFF7A2
:10025000F0FF204610BD202A04DB203A00FA02F10C
:10026000002070479140C2F1200320FA03F31943A4
:1002700090407047202A04DB203A21FA02F0002146
:10028000704721FA02F3D040C2F1200291400843A6
:1002900019467047064C074D06E0E06840F0010340
:1002A00094E8070098471034AC42F6D3FFF778FF84
:1002B0009C160008BC160008FEE700007FB5144637
:1002C0000D4606464FF0FF32032103A88DE80700D4
:1002D00001230422D021094800F010FA9DF80C00F7
:1002E00001F096F930709DF80D0001F091F9287039
:1002F0009DF80E0001F08CF920707FBD18000020E1
:100300007FB514460D4606464FF0FF32032103A881
:100310008DE8070001230022D0210B4800F0EEF900
:100320009DF80C0000F07F0001F072F920709DF83C
:100330000D0001F06DF928709DF80E0000F03F00EF
:1003400001F066F930707FBD180000201FB513461C
:100350000C4601F066F98DF80C00204601F061F9B9
:100360008DF80D00184601F05CF98DF80E004FF085
:10037000FF32032103A88DE8070001230422D021C6
:10038000014800F0B7FA1FBD180000201FB5034652
:100390000C46104601F045F98DF80C00204601F09E
:1003A00040F98DF80D00184601F03BF98DF80E006C
:1003B0004FF0FF32032103A88DE80700012300223C
:1003C000D021024800F096FA1FBD0000180000205E
:1003D000704770472DE9F84F00224FF001080325C0
:1003E0004FF00F0E0B6808FA02F42340A34271D1BC
:1003F0004E68012E05D0022E03D0112E01D0122EF0
:1004000015D18668570005FA07FC26EA0C06D1F8D4
:100410000CC00CFA07FC4CEA060CC0F808C0466891
:10042000A6430C79C4F30014944034434460C66876
:10043000570005FA07FC8C6826EA0C06BC403443DA
:10044000C4604C68022C01D0122C13D1D40800EBEC
:100450008404A346D4F8209054074FEAD46A0EFAD5
:100460000AF629EA06090E6906FA0AF646EA0906B4
:10047000CBF8206004680E7924EA0C0406F0030629
:10048000BE40264306604C68E40056D52E4C2668D4
:1004900046F480462660246822F0030604F4804473
:1004A00000942A4C3444A446D4F808489607370FE1
:1004B0000EFA07F6B443264EB04201D1002615E0ED
:1004C000244EB04201D1012610E0234EB04202D1A9
:1004D00002260BE031E0214EB04201D1032605E0B7
:1004E0001F4EB04201D1042600E00726BE4026433D
:1004F000CCF808681B4E34684F689C43FF0300D556
:100500001C433460174E361D34684F689C43BF034C
:1005100000D51C433460134E083634684F689C4342
:10052000FF0200D51C4334600E4E0C3634684F6811
:100530009C43BF0200D51C433460521C102AFFF4B8
:1005400051AFBDE8F88F0000443802400030014050
:10055000000002400004024000080240000C02407B
:1005600000100240003C01400148806870470000D4
:100570000800002070B5040025D094F83D00002547
:1005800020B984F83C50204600F04CFA242084F82E
:100590003D002068016821F00101016020680168C8
:1005A00041F4004101602068016821F400410160CC
:1005B00000F092FB4D4A6168914201D84C4900E03D
:1005C0004C49884201D2012070BD4B492368B0FBE1
:1005D000F1F15E6826F03F060E435E606368934269
:1005E00006D94FF4967359434FF47A73B1FBF3F184
:1005F0002368491C1E6A26F03F0631431962616870
:10060000914210D84900401EB0FBF1F2521CC2F3D7
:100610000B02042A01D2042022E0B0FBF1F0401CBE
:10062000C0F30B001CE0A268F2B301EBC10303EBC3
:100630000116431EB3FBF6F35B1C43F480431B051A
:1006400049D092B301EBC10202EB0111401EB0FB95
:10065000F1F0401CC0F30B0040F4804040F4004037
:100660002168CA694CF6FF739A431043C861D4E904
:10067000071001432068026822F0C00211430160A4
:10068000D4E9030101432068826848F2FF339A43AA
:1006900011438160D4E9050108432168CA6822F04A
:1006A000FF021043C86001E00EE016E02068016818
:1006B00041F0010101602564202084F83D0025639C
:1006C00084F83E50002070BD01EB4106431EB3FB91
:1006D000F6F35B1CB3E70120C2E701EB4101401ECA
:1006E000B0FBF1F0401CC0F30B00B7E7A08601009F
:1006F00080841E0000093D0040420F002DE9FF4F9D
:1007000083B09A46DDE9119793460446DDF84080B0
:10071000FFF72AFF054694F83D00202870D11923E1
:10072000012271492046009500F0E8FD0028F5D12E
:1007300094F83C00012863D0012084F83C00206834
:100740000168C90703D1016841F001010160206817
:10075000016821F400610160222084F83D004020FE
:1007600084F83E0000262664C4F82480A4F82A9069
:10077000608D20855D48E062CDE9007553465A469C
:100780002046049900F0C2FC00287CD1208DD0B115
:10079000012821D00228206824D041698069009076
:1007A000208D032869D801282BD0514902283B46C7
:1007B0004FF00002009559D08846204600F09EFD7B
:1007C000002860D13CE0206841698169009101689E
:1007D00041F40071016077E02068016821F48061D4
:1007E0000160F0E7016821F4806101602068016820
:1007F00041F400610160206841698069009063E014
:100800006FE02A463946204600F0F7FD98BB206885
:100810000069616A08704EE02068016841F4007167
:10082000016020680069616A0870606A401C60624B
:10083000218D491E2185618D491E6185216838E021
:100840002068016821F48061016020680069616AA4
:100850000870606A401C6062208D401E2085608D9B
:10086000401E60853B46002241460095204600F030
:1008700045FD00B9D0E706E0FFE72A4639462046A5
:1008800000F0BBFD18B1012007B0BDE8F08F206873
:100890000069616A0870606A401C6062218D491EAF
:1008A0002185618D491E618521684A69D2435207BD
:1008B0000AD409690170606A401C6062208D401E84
:1008C0002085608D401E6085208D00287FF468AFF4
:1008D000202084F83D0084F83E6084F83C600020CD
:1008E000D2E70220D0E70000020010000000FFFF66
:1008F000040001002DE9FF4F83B09A46DDE911970E
:1009000093460446DDF84080FFF72EFE054694F836
:100910003D0020287FD1192301224049204600951F
:1009200000F0ECFC002876D194F83C00012872D04D
:10093000012084F83C0020680168C90703D10168E0
:1009400041F0010101602068016821F4006101604B
:10095000212084F83D00402084F83E0000262664D3
:10096000C4F82480A4F82A90608D20852C48E06289
:10097000CDE9007553465A462046049900F044FCE0
:1009800070B930E02A463946204600F069FD58B17A
:10099000206C042804D12068016841F400710160D2
:1009A000012007B0BDE8F08F606A21680078086117
:1009B000606A401C6062218D491E89B22185628D6A
:1009C000521E628522685369DB435B070BD469B111
:1009D00000781061606A401C6062208D401E208596
:1009E000608D401E6085208D0028CBD12A46394677
:1009F000204600F05DFC0028CAD154F83D0B016888
:100A000041F400710160202004F81E09E677667742
:100A10000020C6E7FFE70220C3E700000200100045
:100A20000000FFFF10B586B0044614216846FFF7AA
:100A300007FC13492068884220D11248016841F020
:100A4000020101600068694600F002000590C020C4
:100A500000901220019001200290032003900420B6
:100A600004900948FFF7B6FC06481030016841F4CD
:100A700000110160006800F40010059006B010BD80
:100A800000540040303802400004024002488168AF
:100A90000278114481607047080000200B4810B5AF
:100AA000016841F400710160016841F480610160F6
:100AB000016841F480710160032000F061F80020BA
:100AC00000F006F800F024F8002010BD003C0240C1
:100AD00070B50D4D04464FF47A712878B1FBF0F0F3
:100AE0000A490968B1FBF0F000F0E4FA48B9102CAB
:100AF00007D200222146501E00F022F800206C6030
:100B000070BD012070BD000008000020140000200E
:100B10000A4808B5016841F480410160006800F4AA
:100B2000804000900548001F016841F0805101603D
:100B3000006800F08050009008BD0000443802407A
:100B4000F0B40E4B1B680C46C3F30223C3F1070538
:100B5000042D00D90425191D072901D2002300E026
:100B6000DB1E012606FA05F1491E214099409E40F0
:100B7000761E16403143F0BC00F02BBD0CED00E0BA
:100B8000064900F0070208684FF6FF03184040EAE4
:100B90000220034A10430860704700000CED00E09B
:100BA0000000FA052DE9F0470E46050065D0DFF894
:100BB0001481D8F80000F7B200F00F00B04207D25D
:100BC00088F80070D8F8000000F00F00B04254D14F
:100BD00028683D4C810712D5400703D5206840F4B2
:100BE000E05020602878000703D5206840F460407A
:100BF00020602068A96820F0F00008432060287871
:100C0000C0072DD0304968680839012812D0022861
:100C100013D0032811D00968890700292DDA21682B
:100C200021F0030101432160FFF79EFC814641F260
:100C3000883A0EE009688903EFE709688901ECE763
:100C4000FFF792FCA0EB0901514502D90320BDE852
:100C5000F0872068696800F00C00B0EB810FEFD1DD
:100C6000D8F80010404601F00F01B14207D90770D3
:100C7000006800F00F00B04201D00120E7E72878BB
:100C8000400705D52068E96820F4E050084320605B
:100C90002878000706D52068296920F4604040EADA
:100CA000C100206000F028F82168084AC1F3031150
:100CB000515CC8400649086006480068FFF708FF15
:100CC0000020C4E7003C02400838024084160008B7
:100CD000140000200C000020044805490068096841
:100CE000044AC1F38221515CC840704714000020BF
:100CF0000838024094160008154810B5006810F036
:100D00000C02144813D04110042A0FD0082A0ED127
:100D10000F4C241F2268236802F03F025B0207D5B4
:100D20002068C0F38810A0FB010106E0084610BD52
:100D30002168C1F38811A1FB00010023FFF748FAE5
:100D40002168C1F30141491C4900B0FBF1F010BD1D
:100D5000083802400024F4002DE9F84F04006ED05A
:100D60002078DFF83C93C007A9F104054AD009F1C7
:100D700004000168C1F38101012908D00068C0F3B3
:100D8000810002280AD1D9F80000400206D528685F
:100D9000800337D560680028E1D033E06068B0F5A3
:100DA000803F10D0B0F5A02F286810D020F48030FC
:100DB0002860286820F4802028606068A8B1FFF7C8
:100DC000D3FB06460DE0286840F48030F4E740F499
:100DD00080202860F7E700BFFFF7C6FB801B642870
:100DE00073D828688003F7D50CE0FFF7BDFB0646F3
:100DF00005E000BFFFF7B8FB801B6428F0D8286827
:100E00008003F7D42078DFF89C8280074FF0000A37
:100E10003ED5A348001D016811F00C0F08D00068F2
:100E2000C0F3810002280BD1D9F80000400207D49A
:100E30002868800716D5E068012800D112E02BE170
:100E4000E068B8B10120C8F80000FFF78DFB064646
:100E500005E000BFFFF788FB801B0228C0D8286888
:100E60008007F7D52868216920F0F80040EAC10022
:100E700028600DE0C8F800A0FFF776FB064604E006
:100E8000FFF772FB801B02281FD828688007F7D461
:100E90002078000722D5824E83486169703671B18F
:100EA00001210160FFF760FB074604E0FFF75CFBF0
:100EB000C01B022809D830688007F7D50EE0C0F8BB
:100EC00000A0FFF751FB074605E082E0FFF74CFB6F
:100ED000C01B02287DD830688007F7D420784007EF
:100EE00068D5DFF8BCB100270BF13C0BDBF8000044
:100EF000C0000BD4DBF8001041F08051CBF800109B
:100F0000DBF80000012700F080500090674E306849
:100F1000C00510D4306840F480703060FFF724FBC7
:100F2000009005E0FFF720FB0099401A022850D8F6
:100F30003068C005F6D55A4EA0686C3601280FD02F
:100F40000528306810D020F001003060306820F0B3
:100F500004003060A068B8B1FFF706FB00900FE016
:100F6000306840F00100F4E740F004003060F7E73B
:100F7000FFF7FAFA0099411A41F28830814266D8A7
:100F800030688007F4D50EE0FFF7EEFA009007E036
:100F9000FFF7EAFA0099411A41F28830814256D8A7
:100FA00030688007F4D42FB1DBF8001021F08051B5
:100FB000CBF80010A069C8B33949091D0968C1F30D
:100FC000810102294AD00228504607D0C8F86000A3
:100FD00000E03CE0FFF7C8FA04463BE04746C8F8AB
:100FE0006000FFF7C1FA064605E000BFFFF7BCFA54
:100FF000801B02282BD828688001F7D4D4E9070188
:101000000843A16A2A4A490802EB0141626A41EA9F
:101010008211084394F82C1040EA0161C9F80010CD
:1010200001203866FFF7A0FA044606E036E000BF6C
:10103000FFF79AFA001B022809D828688001F7D523
:101040002CE000BFFFF790FA001B022802D9032012
:10105000BDE8F88F28688001F4D41FE00128F7D09C
:10106000D9F80000E26900F48001914214D1226AAB
:1010700000F03F0191420FD147F6C071626A014012
:10108000914209D1A26A00F44031914204D1E16A4F
:1010900000F07060884201D00120D9E70020D7E736
:1010A0000438024000004742800E47420070004072
:1010B0000000FFFF10B5401EB0F1807F01D301207A
:1010C00010BD4FF0E02460610F21601700F081FA3D
:1010D0000020A06107202061002010BDFEE701680C
:1010E0004A69D24352050FD46FF480624A610021ED
:1010F00040F8301F202242738173026942F00402DB
:101100000261017301207047002070472DE9F84FFC
:101110000446006889460B9D01689846174641F4CD
:10112000806101602068016841F480710160009570
:101130004FF0011B0022594620460A9B00F0DEF8C2
:101140004FF4007A40B120680068C00501D5C4F8AA
:1011500040A00320BDE8F88F216809F0FE00086177
:101160002B46284920460A9A00F0FCF8F0BB20687C
:101170004169806900902A4620460A9900F070F97A
:1011800040B1206C04283AD12068016841F4007114
:10119000016034E0FEB2B8F1010F09D02168380ACD
:1011A00008612A4620460A9900F05AF90028E8D139
:1011B000206806612A4620460A9900F051F9002865
:1011C000DFD12068016841F4807101600095002240
:1011D000594620460A9B00F091F80028B3D12168B7
:1011E00009F0FF0040F00100086100E007E02B4635
:1011F000044920460A9A00F0B5F80028AAD0012038
:10120000A8E70000020001002DE9F8430446006849
:101210000D46DDE9089701689846164641F480714D
:1012200001604B4600224FF001112046009700F06C
:1012300065F848B120680068C00502D54FF4007019
:1012400020640320BDE8F883216805F0FE000861F2
:101250003B464A461549204600F084F888B9206884
:101260004169806900903A464946204600F0F8F806
:1012700048B1206C042804D12068016841F4007151
:1012800001600120DEE7F5B2B8F1010F09D0216855
:10129000300A08613A464946204600F0E1F8002845
:1012A000E7D1206805610020CCE7000002000100C2
:1012B00070B516460D4604460DE02046FFF70FFFB9
:1012C00008B1012070BD681C05D0FFF74DF9801BE7
:1012D000A84207D835B120684069C0434007ECD424
:1012E000002070BD002044F8300F20216173A073EE
:1012F000216941F0200121612073E2E72DE9F047E7
:101300001E4690460D460446C1F30747DDF820907F
:1013100008E0701C06D0FFF727F9A0EB0900B042E7
:101320000FD876B12068012F18D0806925EA000017
:101330000004000C14D000214145EAD00020BDE893
:10134000F087002044F8300F20216173A0732169D9
:1013500041F02001216120730120F0E74069E5E7B9
:101360000121E9E72DE9F0479A4691460E460446E9
:1013700000254FF02008C1F3074725E020684069A9
:10138000C043400514D42068016841F40071016035
:1013900021686FF480604861256384F83D8084F89B
:1013A0003E50206C40F00400206484F83C501FE064
:1013B000B9F1FF3F08D0FFF7D7F8A0EB0A01494584
:1013C0000CD8B9F1000F09D02068012F13D0806923
:1013D00026EA00000004000C0BD0CFE744F8305F91
:1013E00084F80D80A573206940F0200020612573EA
:1013F0000120BDE8F0874069EAE72DE9F0410025CA
:1014000090460E460446202717E04069C043C006B8
:101410000CD454F8301B6FF01000486144F8105998
:101420006777A577206A2062257717E0FFF79CF899
:10143000A0EB0800B04208D83EB120684169C9431A
:101440004906E2D40020BDE8F08144F8305F6773BC
:10145000A573206940F02000206125730120F2E788
:1014600070B516460D4604460DE02046FFF737FEE0
:1014700008B1012070BD681C05D0FFF775F8801B0E
:10148000A84207D835B120684069C0430006ECD4B3
:10149000002070BD002044F8300F20216173A0733C
:1014A000216941F0200121612073E2E70D4808B570
:1014B000016841F080010160016801F08001009144
:1014C000016841F001010160016801F00101009132
:1014D000016841F002010160006800F00200009024
:1014E00008BD0000303802400D4810B50B490160BE
:1014F0000C49416000214FF480428160C0E9031231
:1015000041618161C1610162FFF734F8002803D0B5
:10151000BDE81040FEF75DBF10BD00000054004064
:1015200018000020A0860100FEE770477047704752
:10153000FFF7ACBA30B593B030216846FEF780FEB5
:1015400014210CA8FEF77CFE18480025016841F024
:1015500080510160006800F08050119014480168CB
:1015600041F4404101600068022400F440401190C1
:101570000120039010200490009406940820CDE9E7
:1015800007506420CDE9090404200B906846FFF75A
:10159000E3FB0CA90F2081E83100E002CDE90F0543
:1015A00003210CA8FFF7FEFA13B030BD403802400B
:1015B000007000400548016841F470010160034972
:1015C0004FF00060803908607047000088ED00E04F
:1015D000FEE70907090E002804DB00F1E02080F88F
:1015E0000014704700F00F0000F1E02080F8141D97
:1015F000704702E008C8121F08C1002AFAD17047DC
:101600007047002001E001C1121F002AFBD1704782
:1016100000F00F01000900EB800001EB4000C0B2B8
:1016200070470A21B0FBF1F201FB1202B0FBF1F0AE
:1016300002EB0010C0B27047FFF730FAFFF77AFFF5
:10164000FFF734FFFFF750FF0C48FEF793FF3222FD
:101650003B211720FEF79AFE172206210A20FEF7EB
:1016600075FE074A511E481EFEF74AFE044AD21C68
:10167000511E481EFEF722FEF3E70000180000206E
:10168000020000200000000000000000010203042E
:10169000060708090000000001020304BC16000848
:1016A0000000002018000000F2150008D416000801
:1016B0001800002058040000021600080000000076
:1016C0000000000001000000100000000000000009
:0416D0000024F400FE
:040000050800019955
:00000001FF
