:020000040800F2
:10000000B84D00206D020008070F00083B0E0008E5
:10001000050F00089D030008F11000080000000013
:10002000000000000000000000000000AD0100081A
:100030009F0300080000000009020008850F000867
:10004000870200088702000887020008870200086C
:100050008702000887020008A10300088702000841
:10006000870200088702000887020008870200084C
:10007000870200088702000887020008870200083C
:1000800087020008870200088702000800000000BD
:1000900000000000000000000000000087020008CF
:1000A000870200088702000887020008870200080C
:1000B00087020008870200088702000887020008FC
:1000C00087020008870200088702000887020008EC
:1000D000870200088702000887020008000000006D
:1000E000870200088702000887020008000000005D
:1000F000000000000000000000000000870200086F
:1001000000000000870200084D1000088702000868
:1001100000000000000000000000000000000000DF
:10012000870200088702000887020008870200088B
:10013000870200080000000000000000000000002E
:10014000000000000000000000000000870200081E
:10015000870200088702000887020008870200085B
:10016000870200088702000800000000000000006D
:10017000000000000000000000000000000000007F
:1001800000000000870200080000000000000000DE
:100190008702000887020008DFF80CD000F0ECF8B6
:1001A0000048004731110008B84D00202C4B196859
:1001B0000868B0E8F04F80F30988BFF36F8F4FF005
:1001C000000080F3118870470000000008480068B4
:1001D000006880F308884FF0000080F3148862B64E
:1001E00061B6BFF34F8FBFF36F8F00DF00BF00BF5B
:1001F00008ED00E0DFF80C00016841F470010160D7
:10020000704700BF88ED00E0EFF30980BFF36F8F08
:10021000134B1A681EF0100F08BF20ED108A20E95A
:10022000F04F106009B44FF0500080F31188BFF315
:100230004F8FBFF36F8F01F0B5FE4FF0000080F3DA
:10024000118809BC19680868B0E8F04F1EF0100F5B
:1002500008BFB0EC108A80F30988BFF36F8F704736
:1002600028000020EFF30580704700000648804713
:1002700006480047FEE7FEE7FEE7FEE7FEE7FEE78B
:10028000FEE7FEE7FEE7FEE73110000899010008EF
:100290002DE9F05F0546002092469B4688460646BB
:1002A000814640241BE0284641464746224600F04E
:1002B00053F853465A46C01A914110D31146184676
:1002C000224600F03AF82D1A67EB01084F46224605
:1002D0000120002100F031F817EB00094E41201EEB
:1002E000A4F10104DFDC484631462A464346BDE816
:1002F000F09F40EA01039B0703D009E008C9121FE1
:1003000008C0042AFAD203E011F8013B00F8013BCF
:10031000521EF9D27047D2B201E000F8012B491EFB
:10032000FBD270470022F6E710B513460A46044692
:100330001946FFF7F0FF204610BD202A04DB203AC3
:1003400000FA02F1002070479140C2F1200320FA28
:1003500003F3194390407047202A04DB203A21FA26
:1003600002F00021704721FA02F3D040C2F12002CE
:100370009140084319467047064C074D06E0E06877
:1003800040F0010394E8070098471034AC42F6D3DC
:10039000FFF706FF982A0008B82A0008FEE7704712
:1003A000012000F015B8000010B501280BD100F0B5
:1003B000F1F806494A68821A962A04D94860086802
:1003C00010B10020086010BD0120FBE700000020F4
:1003D000044910B50A68024202D00860FFF7E4FF42
:1003E00010BD0000143C01402DE9F84F00224FF0F1
:1003F000010803254FF00F0E0B6808FA02F42340A2
:10040000A34271D14E68012E05D0022E03D0112EC9
:1004100001D0122E15D18668570005FA07FC26EA8E
:100420000C06D1F80CC00CFA07FC4CEA060CC0F81C
:1004300008C04668A6430C79C4F3001494403443C2
:100440004460C668570005FA07FC8C6826EA0C066B
:10045000BC403443C4604C68022C01D0122C13D130
:10046000D40800EB8404A346D4F8209054074FEA44
:10047000D46A0EFA0AF629EA06090E6906FA0AF69D
:1004800046EA0906CBF8206004680E7924EA0C04D9
:1004900006F00306BE40264306604C68E40056D5CD
:1004A0002E4C266846F480462660246822F0030617
:1004B00004F4804400942A4C3444A446D4F80848F8
:1004C0009607370F0EFA07F6B443264EB04201D115
:1004D000002615E0244EB04201D1012610E0234E43
:1004E000B04202D102260BE031E0214EB04201D1F0
:1004F000032605E01F4EB04201D1042600E0072686
:10050000BE402643CCF808681B4E34684F689C43B5
:10051000FF0300D51C433460174E361D34684F6806
:100520009C43BF0300D51C433460134E0836346827
:100530004F689C43FF0200D51C4334600E4E0C36BE
:1005400034684F689C43BF0200D51C433460521C82
:10055000102AFFF451AFBDE8F88F00004438024084
:100560000030014000000240000402400008024048
:10057000000C024000100240003C0140426931EA98
:10058000020200D10904816170470AB1816170479C
:100590000904FBE70148806870470000180000204C
:1005A0000248816802781144816070471800002079
:1005B0000B4810B5016841F400710160016841F415
:1005C00080610160016841F480710160032000F0E6
:1005D00089F8002000F006F800F03EF8002010BD79
:1005E000003C024010B5014688B00022322000F0E5
:1005F00059F8322000F048F813480024016841F00F
:1006000008010160006805A900F00800069068462E
:1006100000F014F900F032F90C494000B0FBF1F1A0
:100620000C480B4A491E026040F2E732C0E903243D
:10063000C0E9011400F012FB10B1012008B010BD98
:10064000044800F027FBF9E74038024040420F0021
:10065000000C0040A00000200A4808B5016841F4E1
:1006600080410160006800F4804000900548001F50
:10067000016841F080510160006800F080500090F6
:1006800008BD000044380240002809DB00F01F02CA
:10069000012191404009800000F1E020C0F80011E4
:1006A00070470000F0B40E4B1B680C46C3F30223E6
:1006B000C3F10705042D00D90425191D072901D20E
:1006C000002300E0DB1E012606FA05F1491E214049
:1006D00099409E40761E16403143F0BC00F009BDA3
:1006E0000CED00E0064900F0070208684FF6FF0332
:1006F000184040EA0220034A104308607047000097
:100700000CED00E00000FA052DE9F0470E4605006B
:1007100065D0DFF81481D8F80000F7B200F00F00C0
:10072000B04207D288F80070D8F8000000F00F003F
:10073000B04254D128683D4C810712D5400703D5FB
:10074000206840F4E05020602878000703D5206836
:1007500040F4604020602068A96820F0F000084361
:1007600020602878C0072DD03049686808390128F2
:1007700012D0022813D0032811D009688907002954
:100780002DDA216821F0030101432160FFF702FF08
:10079000814641F2883A0EE009688903EFE709686B
:1007A0008901ECE7FFF7F6FEA0EB0901514502D9FC
:1007B0000320BDE8F0872068696800F00C00B0EB0A
:1007C000810FEFD1D8F80010404601F00F01B1427F
:1007D00007D90770006800F00F00B04201D0012077
:1007E000E7E72878400705D52068E96820F4E0505D
:1007F000084320602878000706D52068296920F47E
:10080000604040EAC100206000F048F82168084AD2
:10081000C1F30311515CC8400649086006480068EE
:10082000FFF7E0FE0020C4E7003C02400838024029
:10083000602A0008240000201C0000200F22026013
:100840000C4A136803F003034360136803F0F003DA
:100850008360136803F4E053C36012684FF4E053FD
:1008600003EAD20202610448006800F00F00086049
:100870007047000008380240003C02400448054927
:1008800000680968044AC1F38221515CC84070477E
:100890002400002008380240702A0008154810B5CE
:1008A000006810F00C02144813D04110042A0FD035
:1008B000082A0ED10F4C241F2268236802F03F0241
:1008C0005B0207D52068C0F38810A0FB010106E099
:1008D000084610BD2168C1F38811A1FB0001002367
:1008E000FFF7D6FC2168C1F30141491C4900B0FB68
:1008F000F1F010BD083802400024F4002DE9F84F53
:1009000004006ED02078DFF83C93C007A9F10405FD
:100910004AD009F104000168C1F38101012908D01E
:100920000068C0F3810002280AD1D9F80000400213
:1009300006D52868800337D560680028E1D033E009
:100940006068B0F5803F10D0B0F5A02F286810D0B7
:1009500020F480302860286820F4802028606068B7
:10096000A8B1FFF717FE06460DE0286840F4803076
:10097000F4E740F480202860F7E700BFFFF70AFEA5
:10098000801B642873D828688003F7D50CE0FFF734
:1009900001FE064605E000BFFFF7FCFD801B642852
:1009A000F0D828688003F7D42078DFF89C8280078D
:1009B0004FF0000A3ED5A348001D016811F00C0F4E
:1009C00008D00068C0F3810002280BD1D9F80000DC
:1009D000400207D42868800716D5E068012800D1B6
:1009E00012E02BE1E068B8B10120C8F80000FFF781
:1009F000D1FD064605E000BFFFF7CCFD801B0228B5
:100A0000C0D828688007F7D52868216920F0F80049
:100A100040EAC10028600DE0C8F800A0FFF7BAFD69
:100A2000064604E0FFF7B6FD801B02281FD82868A1
:100A30008007F7D42078000722D5824E8348616969
:100A4000703671B101210160FFF7A4FD074604E093
:100A5000FFF7A0FDC01B022809D830688007F7D532
:100A60000EE0C0F800A0FFF795FD074605E082E024
:100A7000FFF790FDC01B02287DD830688007F7D4AF
:100A80002078400768D5DFF8BCB100270BF13C0B9C
:100A9000DBF80000C0000BD4DBF8001041F08051FF
:100AA000CBF80010DBF80000012700F08050009028
:100AB000674E3068C00510D4306840F480703060F4
:100AC000FFF768FD009005E0FFF764FD0099401A0C
:100AD000022850D83068C005F6D55A4EA0686C364A
:100AE00001280FD00528306810D020F001003060B8
:100AF000306820F004003060A068B8B1FFF74AFD0C
:100B000000900FE0306840F00100F4E740F004008E
:100B10003060F7E7FFF73EFD0099411A41F2883057
:100B2000814266D830688007F4D50EE0FFF732FDC9
:100B3000009007E0FFF72EFD0099411A41F288303E
:100B4000814256D830688007F4D42FB1DBF800100A
:100B500021F08051CBF80010A069C8B33949091DB4
:100B60000968C1F3810102294AD00228504607D002
:100B7000C8F8600000E03CE0FFF70CFD04463BE0F5
:100B80004746C8F86000FFF705FD064605E000BFD0
:100B9000FFF700FD801B02282BD828688001F7D4BE
:100BA000D4E907010843A16A2A4A490802EB014136
:100BB000626A41EA8211084394F82C1040EA01610C
:100BC000C9F8001001203866FFF7E4FC044606E08F
:100BD00036E000BFFFF7DEFC001B022809D82868BA
:100BE0008001F7D52CE000BFFFF7D4FC001B0228E2
:100BF00002D90320BDE8F88F28688001F4D41FE0F3
:100C00000128F7D0D9F80000E26900F48001914290
:100C100014D1226A00F03F0191420FD147F6C07112
:100C2000626A0140914209D1A26A00F440319142C6
:100C300004D1E16A00F07060884201D00120D9E758
:100C40000020D7E70438024000004742800E4742A8
:100C5000007000400000FFFF7047704710B50400AF
:100C600003D094F83D0010B107E0012010BD002032
:100C700084F83C00204600F00CF8022084F83D0087
:100C8000211D206800F0E8F9012084F83D000020D3
:100C900010BD70470168CA6842F00102CA6000686E
:100CA000816801F00701062903D0016841F00101C4
:100CB000016000207047704770B504460068016904
:100CC0004FF00005C943890715D4C168C943890796
:100CD00011D4E91E01610120207720688069800716
:100CE000204602D0FFF7E7FF04E000F098F8204626
:100CF00000F096F8257720680169C943490717D4A1
:100D0000C168C943490713D46FF00401016102208F
:100D100020772068806910F4407F204602D0FFF7DA
:100D2000CAFF04E000F07BF8204600F079F8257750
:100D300020680169C943090716D4C168C943090776
:100D400012D46FF008010161042020772068C06987
:100D50008007204602D0FFF7AEFF04E000F05FF806
:100D6000204600F05DF8257720680169C943C9066F
:100D700017D4C168C943C90613D46FF010010161CB
:100D8000082020772068C06910F4407F204602D0F8
:100D9000FFF791FF04E000F042F8204600F040F831
:100DA000257720680169C943C90708D1C168C943CB
:100DB000C90704D1891E0161204600F033F820687C
:100DC0000169C943090609D4C168C943090605D4A4
:100DD0006FF0800101612046FFF73EFF2068016946
:100DE000C943490609D4C168C943490605D46FF00F
:100DF00040010161204600F01FF820680169C943E5
:100E000089060BD4C168C943890607D46FF0200155
:100E100001612046BDE87040FFF71FBF70BD7047FD
:100E20007047000000680349884201D1FFF7B8BB52
:100E300070470000000C00407047FEE710B5074AFD
:100E40000021074800F0F4F9064C044A0021206014
:100E50002432054800F0ECF9606010BD182A000843
:100E6000750F0008100000207D0F0008F0B587B056
:100E700014216846FFF756FA1E480024016841F025
:100E800080010160016801F080010591016841F075
:100E900001010160016801F001010591016841F063
:100EA000080101600068144F00F008004FF4C046CC
:100EB0000590002231463846FFF767FB01250F48B1
:100EC0000095CDE9010469460D48FFF78DFA0096BB
:100ED000CDE90154694638460394FFF785FA0022AC
:100EE00011460620FFF7DEFB0620FFF7CDFB07B01B
:100EF000F0BD000030380240000C0240000011102C
:100F000000000240FEE770472DE9F04116460F460B
:100F100004461D46012219463046FFF736FB20469F
:100F200000F034F9002229463046FFF72EFB384600
:100F3000BDE8F04100F02AB9064E4FF400546500B8
:100F4000306820B14FEA050000F010FEF8E72046B7
:100F5000FAE7000000000020054E4FF40054650041
:100F6000306808B1204600E0284600F029FEF7E787
:100F700000000020012000F009F9FBE7012000F04B
:100F800005F9FBE710B5502080F31188BFF34F8FB0
:100F9000BFF36F8F01F07AFB18B104494FF0805016
:100FA0000860002080F3118810BD000004ED00E00F
:100FB00030B593B030216846FFF7B4F914210CA87E
:100FC000FFF7B0F918480025016841F08051016031
:100FD000006800F0805011901448016841F44041CD
:100FE00001600068022400F4404011900120039049
:100FF00010200490009406940820CDE90750642046
:10100000CDE9090404200B906846FFF777FC0CA992
:101010000F2081E83100E002CDE90F0503210CA883
:10102000FFF772FB13B030BD403802400070004043
:101030000548016841F47001016003494FF0006008
:10104000803908607047000088ED00E00148FFF734
:1010500033BE0000A0000020F0B502681D4B1E4CFE
:101060009F031E4D1E4E984207D0B84205D0A042A5
:1010700003D0A84201D0B04204D122F0700C4A68DB
:1010800042EA0C02984210D0B8420ED0A0420CD0D6
:10109000A8420AD0B04208D0124CA04205D0124C4F
:1010A000A04202D0114CA04203D122F44074CA687D
:1010B00022434C6922F08002224302608A68C262A5
:1010C0000A688262984201D1096901630121416184
:1010D000F0BD000000000140000400400008004096
:1010E000000C004000400140004401400048014025
:1010F000FEE70907090E002804DB00F1E02080F874
:101100000014704700F00F0000F1E02080F8141D7B
:10111000704702E008C8121F08C1002AFAD17047C0
:101120007047002001E001C1121F002AFBD1704767
:1011300092B0FFF73DFAFFF73BFFFFF797FE00F095
:101140003FF8FFF77BFE24220C496846FFF7D1F8F1
:101150006A4600210A4800F06BF80A4C074924222D
:10116000A060243109A8FFF7C4F809AA00210648A5
:1011700000F05EF8E06000F03DF8FEE7D0290008DE
:10118000390F000800000020590F000810B5EFF3D8
:10119000058179B9EFF3108111B9EFF3118119B11C
:1011A00006490968022905D0002408B100F046FE6E
:1011B000204610BD6FF00504FAE70000780000201B
:1011C000EFF3058068B9EFF310820949086812B996
:1011D000EFF311820AB1022803D028B14FF0FF309B
:1011E00070476FF0050070470120086000207047CD
:1011F0007800002010B5EFF3058070B9EFF310828E
:101200000A49086812B9EFF311820AB1022804D022
:10121000012805D04FF0FF3010BD6FF0050010BD64
:101220000220086000F072FE002010BD780000204F
:101230002DE9FF414FEA01034FF00005EFF305816F
:10124000039599BBEFF3108111B9EFF3118119B137
:101250001F490968022938D040B38026182100248C
:101260004AB3176807B13C4697691FB139467F1EDC
:10127000382F02D21779FF0703D0002004B0BDE851
:10128000F081576907B1BE08D2F808C0BCF1000F61
:101290000DD0D5685C2D18D312693AB137B18DE8FD
:1012A00006103246214601F0B2F903900DE0D768EE
:1012B0005FB912694AB903AACDE90012B2B2214658
:1012C00001F078F9012800D003950398D6E70000D3
:1012D000780000202DE9F041134C0F460546666961
:1012E0002068001D00F07AFC681C07D137B1216826
:1012F000BDE8F0410D48091D00F0C0BC2068354430
:10130000B5424560216805D2A068BDE8F041091DDD
:1013100000F09CBC6068091D00F098FC206B8542C1
:1013200000D22563BDE8F08128000020D005002010
:101330002DE9F041054600F0ADFC2D4C2069401C24
:10134000206120682B4F10B1E06930B32BE025609D
:101350002069012827D1002606EB860007EB8000D4
:1013600000F066FC761C382EF6D3234800F060FCB3
:101370002148143000F05CFC1F48283000F058FC75
:101380001D483C3000F054FC1B48503000F050FC2D
:10139000194860601430A06005E02068E96AC06AFE
:1013A000884200D82560E06A401CE0626864E86A10
:1013B000A169884200D9A06100EB800007EB8000A2
:1013C000291D00F05BFC00F085FCE06900280CD0D2
:1013D0002068E96AC06A884207D208494FF0805005
:1013E0000860BFF34F8FBFF36F8FBDE8F08100003F
:1013F00028000020200100208005002004ED00E0EE
:1014000038B500F047FC104CA068C8B90F4800F090
:101410000FFC0E48143000F00BFC0C482060143018
:1014200060600A4B00202833009003F15002102125
:101430000A2000F063FEA06010B105A100F0C8FC16
:10144000BDE8384000F046BC64000020E405002000
:10145000546D72510000000030B4026C0B46002A3B
:101460000BD0C1681144C1608468A14201D30168F6
:10147000C16030BC1846FEF73CBF30BC70472DE958
:10148000F041856B174604460026026C82B1C7B155
:10149000E068FEF72EFFE168206C091AE16022681F
:1014A000914202D2A168081AE060022F16D017E01C
:1014B0002068A8B9A06801F04DF906460020A06098
:1014C0000EE06068FEF715FF216C606808446060FC
:1014D000A168884204D32068606001E005B16D1EF8
:1014E0006D1CA5633046BDE8F08110B5044690F848
:1014F000590058B101280CD002280FD0502080F399
:101500001188BFF34F8FBFF36F8FFEE7206B00F0A2
:10151000F5FB2046BDE8104000F0F0BB10BD000018
:1015200010484FF47051420706D0C01D0D4920F0FD
:101530000700411AC1F570510B4A00230144C2E96A
:1015400000030839103A21F0070111604B600B606D
:101550000B1AC0E9001393604FF000405360D06055
:1015600070470000B40D00208C000020144E154C74
:10157000A6F29C474FF08058DFF84C9012E000BF75
:1015800000F088FBF068C568281D00F027FB206983
:10159000401E2061E068401EE06000F09BFB284692
:1015A000FFF7A3FFE0680028EAD138680128F9D9DD
:1015B000C9F80080BFF34F8FBFF36F8FF2E70000D1
:1015C000BC0500202800002004ED00E070B51D4699
:1015D000049C51B1C4F80020C4E90F010121204648
:1015E00000F0C0FD84F84C5070BD2460F4E70000AA
:1015F0002DE9F05F8846DDE90B941546834691009E
:101600009A460A9EA522206BFEF785FE6FF0030125
:10161000206B01EB8501084420F00707780707D00D
:10162000502080F31188BFF34F8FBFF36F8FFEE719
:101630000025B8F1000F0FD05FF00000221818F855
:10164000001082F8341018F8001011B1401C102856
:10165000F4D384F8435001E084F83450382E00D39A
:101660003726E662C4E91365201D00F0ECFA04F1A8
:10167000180000F0E8FA2461C6F138006462A06145
:10168000656584F8585052465946384600F058FA75
:101690002060B9F1000F01D0C9F80040BDE8F09F0B
:1016A00030B5114900E011460A688242FBD34B680D
:1016B0005C18844203D14068184448600846436877
:1016C0001C18944209D1084C103C2468A24209D04D
:1016D00052681A4442600A6812680260814200D06F
:1016E000086030BD0460F9E78C00002070B500246C
:1016F00041600B4D0061914206D8D11A8269914236
:1017000006D2011D686807E09A4203D2994201D3CC
:10171000012403E0011D286800F098FA204670BDFE
:101720006400002010B5044600F0B4FAA06B28B1A4
:101730005FF0000400F0CEFA204610BD0124F9E766
:1017400030B589B03C4D6EE00498002806DADDE93A
:101750000601059A90470498002864DB069C60699E
:1017600010B1201D00F03AFA03A800F0D7F80246A5
:1017700004980A2857D2DFE800F00505052D334A02
:1017800005052D3394F8280040F0010084F8280066
:101790000599A069059B01442046FFF7A7FF68B3A0
:1017A000216A2046884794F8280040073BD500204E
:1017B00000900598A169002342181946204601F0BF
:1017C000D3F8D8B9502080F31188BFF34F8FBFF3FF
:1017D0006F8FFEE714F8280F20F00100207022E040
:1017E00094F8280040F0010084F828000598A061D2
:1017F00028B1811813462046FFF778FF13E05020E8
:1018000080F31188BFF34F8FBFF36F8FFEE794F81B
:101810002800810703D4204600F070FA03E020F08E
:10182000010084F82800002204A9A86800F0ECFD5B
:10183000002889D109B030BD640000202DE9FC41A9
:101840000F46054600F0A6FB01A800F067F8044625
:10185000019818B100F0F6FFBDE8FC81254EAFB14C
:1018600070680068D0B30027291B3A46B06800F0C2
:10187000C3FA00F0E7FF0028EED11F494FF0805077
:101880000860BFF34F8FBFF36F8FE5E7A542EBD83A
:1018900000F0D8FF30682746C068C468201D00F0FB
:1018A0009DF994F82800410719D5A0692B464119E4
:1018B0003A462046FFF71AFFA8B10020034601462A
:1018C00000902A46204601F04FF860B9502080F37E
:1018D0001188BFF34F8FBFF36F8FFEE707E020F053
:1018E000010084F82800216A20468847B4E70127D0
:1018F000BAE700006400002004ED00E006484168FB
:10190000096829B14168C968C968496801637047B5
:101910004FF0FF31FAE700002800002070B50546BF
:1019200000F0AEFE064E04463069844203D200F059
:1019300009F8012000E0002028602046346170BDD5
:1019400064000020F8B5194D20E0C068C46806683E
:10195000201D00F043F9216A2046884794F82800AA
:10196000400713D5A0693044B04206D924616060B5
:10197000211D286800F06AF908E0002003460146AE
:1019800000903246204600F0EFFF38B12868016829
:101990000029DAD16968C5E90010F8BD502080F34C
:1019A0001188BFF34F8FBFF36F8FFEE764000020F5
:1019B00008484068401C4FF0500080F3118804D064
:1019C000BFF34F8FBFF36F8FFEE7BFF34F8FBFF3B0
:1019D0006F8FFEE794000020074C2068016841B13A
:1019E000C0680021D0F80000FFF728FFFFF7A8FE2D
:1019F000F3E701210020F7E7640000202DE9F04122
:101A0000044600F047F994F9455004F1240609E032
:101A1000606A48B1304600F0DDFE08B100F03CFAE3
:101A20006D1E6DB2002DF3DC4FF0FF3684F845607B
:101A300000F050F900F02EF994F9445004F1100729
:101A400009E0206948B1384600F0C4FE08B100F052
:101A500023FA6D1E6DB2002DF3DC84F84460BDE8FE
:101A6000F04100F037B900002DE9F04105460027AC
:101A700000F090FA314E306808B9FFF751FDF06878
:101A800005424BD1C5B3083568070ED005F00700F5
:101A9000C0F108000544680707D0502080F3118882
:101AA000BFF34F8FBFF36F8FFEE72DB37068854292
:101AB00034D82248103001460C6801E020460C461C
:101AC0006168A94202D221680029F7D131688C42AD
:101AD00024D007682168016060680837411B10291D
:101AE0000FD96019420708D0502080F31188BFF346
:101AF0004F8FBFF36F8FFEE710E041606560FFF727
:101B0000CFFD61687068401A7060B268904200D280
:101B1000B060F06801430020C4E9000100F092FECB
:101B2000780707D0502080F31188BFF34F8FBFF3A1
:101B30006F8FFEE73846BDE8F08100007C00002092
:101B400010B5031F4FF080741C601B1F21F00101B2
:101B50001960191F044B0B6014390A60091F6FF0DC
:101B6000020244380A6010BDB11900082DE9F041A5
:101B7000124D804600240026C4F10507394643462D
:101B80002A462046FFF7C0F9761C142EF6DB641CAB
:101B9000052CF0DB00242F460025C4F10506304655
:101BA00043463A462146FFF7AFF96D1C142DF6DB8C
:101BB000641C052CF0DBBDE8F0810000000C024045
:101BC00010B501460448FEF7D9FCBDE810404FF4BB
:101BD000FA70FFF7DBBA0000000C0240D0E90132D6
:101BE00001699A60D0E901235A604A68824201D1B2
:101BF00082684A60002202610868401E0860086826
:101C000070470000034B036003F15C000860802014
:101C100010607047FC060020044B036003F15C0079
:101C200008604FF480701060704700005809002071
:101C300000F108014FF0FF32C0E90112C1600161FB
:101C400000210160704700210161704730B50B68C9
:101C50005A1C02D000F1080202E0026904E02246A8
:101C6000546825689D42FAD953684B6099608A6030
:101C7000516008610168491C016030BD42684A60DA
:101C800093688B6093685960916008610168491C92
:101C900001607047502080F31188BFF34F8FBFF36E
:101CA0006F8F0A494868401C486001280CD10848D9
:101CB000006810F0FF0F07D0502080F31188BFF3A9
:101CC0004F8FBFF36F8FFEE7704700009400002036
:101CD00004ED00E00849486828B1401E486001D181
:101CE00080F311887047502080F31188BFF34F8F25
:101CF000BFF36F8FFEE700009400002070B500284E
:101D000027D0144DA0F108046168E868014207D1AA
:101D1000502080F31188BFF34F8FBFF36F8FFEE722
:101D200022683AB1502080F31188BFF34F8FBFF380
:101D30006F8FFEE78143616000F02CF9606869688D
:101D4000084468602046FFF7ABFCBDE8704000F037
:101D500079BD70BD7C0000204FF0E02000210161C2
:101D6000816105494FF47A720968B1FBF2F1491EAD
:101D700041610721016170472400002010B5FEF782
:101D800071FA114910280ED300F1E02090F8F00309
:101D90000A78904207D2502080F31188BFF34F8F0A
:101DA000BFF36F8FFEE709480068896800F4E060C0
:101DB000884207D9502080F31188BFF34F8FBFF3BB
:101DC0006F8FFEE710BD0000940000200CED00E0D6
:101DD00010B5084B002200BF53F832401CB1521C12
:101DE000082AF9D310BD43F8321003EBC201486052
:101DF00010BD0000E000002070B515460E460446F8
:101E0000FFF748FF94F944100020491C01D184F8E1
:101E1000440094F94510491C01D184F84500FFF7AE
:101E200059FFA06B28B92A46314604F1240000F07E
:101E300051F82046BDE87040FFF7E0BD10B5020044
:101E400014D00F48806B38B1502080F31188BFF355
:101E50004F8FBFF36F8FFEE700F09CF80021104614
:101E6000FFF738FA00F0EEFC002807D105494FF0E3
:101E700080500860BFF34F8FBFF36F8F10BD00001D
:101E80002800002004ED00E002498A6A02604969E6
:101E900041607047280000200149012048627047D6
:101EA0002800002010B50C4650B1094909681831C6
:101EB000FFF7CCFE2046BDE810400121FFF70ABA2B
:101EC000502080F31188BFF34F8FBFF36F8FFEE771
:101ED0002800002070B514460D4668B10A4909680B
:101EE0001831FFF7CBFE0CB14FF0FF3521462846E5
:101EF000BDE87040FFF7EEB9502080F31188BFF3C2
:101F00004F8FBFF36F8FFEE72800002030B587B0FA
:101F10000024039405AA04A903A80494FFF772FE01
:101F2000DDE903010094CDE90110002315A1174854
:101F3000059A00F06CFB164D002868631FD000F076
:101F4000E3FC012809D0401C19D1502080F31188EE
:101F5000BFF34F8FBFF36F8FFEE7502080F31188E0
:101F6000BFF34F8FBFF36F8F4FF0FF302863012017
:101F7000E8616C6107B0BDE8304000F045B807B0DB
:101F800030BD000049444C45000000006D150008BC
:101F9000280000200248816B491C816370470000C3
:101FA00028000020164810B5816B11B10121416253
:101FB00010BD002141628169124A01E0B9B1491E98
:101FC00001EB810352F82330002BF7D001EB8103A2
:101FD00002EB830202F1080453685B685360A3427A
:101FE00001D15B685360DA680260816110BD5020E6
:101FF00080F31188BFF34F8FBFF36F8FFEE70000B0
:1020000028000020200100201CB537480168374A0D
:10201000914207D1502080F31188BFF34F8FBFF357
:102020006F8FFEE700683149491E884207D1502072
:1020300080F31188BFF34F8FBFF36F8FFEE72C49FA
:1020400008780190FF20087008788DF800009DF84E
:1020500000009DF8002000F0F000904207D05020D2
:1020600080F31188BFF34F8FBFF36F8FFEE79DF8AA
:102070000000204B00F0500018700720986005E029
:102080009DF8002052008DF80020401E9DF8002091
:102090001206F5D49860032807D0502080F31188E9
:1020A000BFF34F8FBFF36F8FFEE74FF44070986020
:1020B000019808700C482030016841F470010160FB
:1020C000016841F070410160FFF746FE0020586052
:1020D000FEF790F80848016841F040410160FEF7C2
:1020E00075F800201CBD000000ED00E071C20F413A
:1020F00000E400E09400002034EF00E038B5049DD7
:1021000018B153B1CAB181B120E0502080F31188D9
:10211000BFF34F8FBFF36F8FFEE7502080F311881E
:10212000BFF34F8FBFF36F8FFEE7502080F311880E
:10213000BFF34F8FBFF36F8FFEE739B1502080F3AD
:102140001188BFF34F8FBFF36F8FFEE750241C46FB
:10215000012384F846302B460094FFF737FA2046D7
:1021600038BD000070B50D46040025D0FFF792FD84
:10217000D4E90F20216802FB0011A1600021A163B6
:10218000216861600A46D4E90F01401E00FB01216D
:10219000E16021464FF0FF3001F8440F487004F130
:1021A00010008DB1FFF744FD04F12400FFF740FD5E
:1021B000FFF790FD012070BD502080F31188BFF320
:1021C0004F8FBFF36F8FFEE721690029F0D000F039
:1021D00001FB0028ECD004494FF080500860BFF3A9
:1021E0004F8FBFF36F8FE3E704ED00E02DE9FF476A
:1021F00082B01D468A464FF00008040003D0BAF1B1
:10220000000F08D011E0502080F31188BFF34F8FEA
:10221000BFF36F8FFEE7206C38B1502080F3118838
:10222000BFF34F8FBFF36F8FFEE7022D0AD1E06B34
:10223000012807D0502080F31188BFF34F8FBFF3E0
:102240006F8FFEE700F00EFA3F4F4FF000094FF09E
:10225000805648B9049838B1502080F31188BFF3F4
:102260004F8FBFF36F8FFEE7FFF714FDA06BE16B9D
:10227000884207D3022D05D00498D0B1B8F1000FE1
:102280001AD01EE02A4651462046FFF7F8F8616A48
:1022900019B104F1240000F09DFA20B13E60BFF3B3
:1022A0004F8FBFF36F8FFFF715FD012006B0BDE81C
:1022B000F087FFF70FFD22E06846FFF7E5FD4FF0DE
:1022C0000108FFF707FDFFF765FEFFF7E3FC94F950
:1022D0004400401C01D184F8449094F94500401C0E
:1022E00001D184F84590FFF7F5FC04A9684600F099
:1022F00027F930B12046FFF781FB00F0A3FA002058
:10230000D4E7FFF7C7FCA06BE16B884213D1FFF75E
:10231000E1FC04F110000499FFF7C4FD2046FFF72B
:102320006DFB00F08FFA00289ED13E60BFF34F8F07
:10233000BFF36F8F98E7FFF7CDFC2046FFF75EFBFA
:1023400000F080FA90E7000004ED00E02DE9F0478E
:102350001F4690468946040003D0B9F1000F08D00B
:1023600011E0502080F31188BFF34F8FBFF36F8FC0
:10237000FEE7206C38B1502080F31188BFF34F8FF7
:10238000BFF36F8FFEE7022F0AD1E06B012807D061
:10239000502080F31188BFF34F8FBFF36F8FFEE79C
:1023A000FFF7ECFC5020EFF3118680F31188BFF3A8
:1023B0004F8FBFF36F8FA06BE16B884206D3022F64
:1023C00004D0002086F31188BDE8F08794F94550C9
:1023D0003A4649462046FFF752F8681C04D06D1C67
:1023E00084F845500120EDE7606A0028FAD004F136
:1023F000240000F0EFF90028F4D0B8F1000FF1D07C
:102400000121C8F80010EDE72DE9F747002683B059
:102410008A46040003D0BAF1000F08D011E0502022
:1024200080F31188BFF34F8FBFF36F8FFEE7206CEF
:1024300038B1502080F31188BFF34F8FBFF36F8FF7
:10244000FEE700F00FF9DFF8F4804FF000094FF0DD
:10245000805748B9059838B1502080F31188BFF3F0
:102460004F8FBFF36F8FFEE7FFF714FCA56BC5B16D
:1024700051462046FEF7F0FF6D1EA563206950B15E
:1024800004F1100000F0A6F928B1C8F80070BFF3FD
:102490004F8FBFF36F8FFFF71DFC012006B0BDE823
:1024A000F087059808B11EB106E0FFF713FC27E09E
:1024B0006846FFF7E9FC0126FFF70CFCFFF76AFD11
:1024C000FFF7E8FB94F94400401C01D184F84490E4
:1024D00094F94500401C01D184F84590FFF7FAFBC0
:1024E00005A9684600F02CF8002820460AD0FFF71E
:1024F00085FA00F0A7F92046FFF714F90028B3D0B9
:102500000020CBE7FFF70EF990B104F12400059904
:10251000FFF7C8FC2046FFF771FA00F093F9002896
:10252000A2D1C8F80070BFF34F8FBFF36F8F9BE746
:102530002046FFF763FA00F085F995E704ED00E027
:102540002DE9F0410C46050011D0C4B1FFF7A2FB04
:10255000174B5A696E682068911B471C17D02F686B
:102560009B6A9F4219D0964217D8012410E0502050
:1025700080F31188BFF34F8FBFF36F8FFEE75020BA
:1025800080F31188BFF34F8FBFF36F8FFEE70024F6
:10259000FFF7A0FB2046BDE8F081884205D9401A2C
:1025A00020602846FFF770FCF1E700202060DCE7A0
:1025B000280000202DE9FF5F8346DDE90E8799465C
:1025C00016468A469000FFF74FFA05001CD05C20A3
:1025D000FFF74AFA040014D00020256384F859005C
:1025E000CDE90240CDE900874B4632465146584678
:1025F000FEF7FEFF2046FEF79BFE012004B0BDE87B
:10260000F09F2846FFF77AFB4FF0FF30F6E7F0B572
:1026100085B0DDE90B640A9DA6B1DCB15C270097AB
:102620002663022684F85960002604AFCDE90246ED
:10263000CDE90057FEF7DCFF2046FEF779FE04984F
:1026400005B0F0BD502080F31188BFF34F8FBFF36A
:102650006F8FFEE7502080F31188BFF34F8FBFF3D9
:102660006F8FFEE70548C16919B1806B18B1002072
:1026700070470120704702207047000028000020AA
:102680000148406970470000280000202DE9F04112
:102690002E4C0027A06B40B1206A401C2062606A6B
:1026A00000B101273846BDE8F0816669761C666195
:1026B00013D16068006838B1502080F31188BFF3EF
:1026C0004F8FBFF36F8FFEE76068A1686160A06005
:1026D000A06A401CA062FFF711F9206BDFF8708040
:1026E000864209D36068006880B16068C068C568C8
:1026F000686886420DD220632068C06A00EB8001C2
:1027000058F821000128CAD90127C8E74FF0FF3047
:10271000F1E7281DFFF762FAA86A18B105F1180061
:10272000FFF75CFAE86AA169884200D9A06100EB72
:10273000800108EB8100291DFFF7A0FAE86A2168F3
:10274000C96A8842CED30127CCE7000028000020C8
:102750002001002070B504004FF0000133D01B4D64
:102760002868844207D0502080F31188BFF34F8F30
:10277000BFF36F8FFEE7206D38B1401E2065E36C1C
:10278000E26A9A421FD040B11DE0502080F31188C8
:10279000BFF34F8FBFF36F8FFEE7201DFFF71EFAC9
:1027A000E06CE062C0F13800A061E06AA96988428B
:1027B00000D9A861064900EB800001EB8000211DD3
:1027C000FFF75CFA0121084670BD000028000020D8
:1027D0002001002070B5C068C46854B104F118002D
:1027E0000646FFF7FBF9144DA86B50B1314613486C
:1027F00015E0502080F31188BFF34F8FBFF36F8F28
:10280000FEE7201DFFF7EAF9E06AA969884200D9CE
:10281000A8610B4900EB800001EB8000211DFFF750
:102820002DFAE06A2968C96A884202D901206862E3
:1028300070BD002070BD000028000020A805002009
:10284000200100202DE9F0472C4D00242746A86BDD
:1028500038B1FFF71FFAA86B401EA863A86B40B100
:1028600046E0502080F31188BFF34F8FBFF36F8F86
:10287000FEE72969224E0120D1B3A6F59169804671
:102880003068E0B1F068C46804F11800FFF7A6F9F9
:10289000201DFFF7A3F9E06AA969884200D9A86161
:1028A00000EB800109EB8100211DFFF7E7F9E06AE9
:1028B0002968C96A8842E3D3C5F82480E0E70CB1EF
:1028C000FFF71CF82C6A4CB14FEA0806FFF7DEFE52
:1028D00000B16E62641EF9D100202862686A38B1C6
:1028E0000849012738070860BFF34F8FBFF36F8F88
:1028F000FFF7F0F93846BDE8F08700002800002017
:10290000A805002004ED00E010B586B0FEF778FDC4
:10291000114CA068B8B100200390049005AA04A946
:1029200003A8FFF779F9DDE9032102208DE807000C
:1029300000230AA10B48059AFFF769FEE06010B179
:1029400006B0012010BD502080F31188BFF34F8FD7
:10295000BFF36F8FFEE7000064000020546D72200B
:1029600053766300D91900082DE9FF411E4613462E
:1029700002000A9D4FF0000016D0144CA768002FEB
:102980000FD0CDE900130292062917DAFFF76AFE8D
:1029900002284FF000030FD000226946A068FFF71D
:1029A00025FC04B0BDE8F081502080F31188BFF30E
:1029B0004F8FBFF36F8FFEE72A46EEE700233246C4
:1029C00069463846FFF7C2FCEBE7000064000020D0
:1029D000782A00080000000000000000000000004D
:1029E000000000008000000018000000000000004F
:1029F00000000000802A0008000000000000000025
:102A00000000000000000000800000001000000036
:102A10000000000000000000882A000800000000FC
:102A200000000000000000000000000000020000A4
:102A3000180000000000000000000000902A0008BC
:102A40000000000000000000000000000000000086
:102A5000000200000800000000000000000000006C
:102A6000000000000000000001020304060708093E
:102A70000000000001020304626C696E6B303100DB
:102A8000626C696E6B303200426C696E6B310000B3
:102A9000426C696E6B320000B82A0008000000200A
:102AA000A000000012110008582B0008A000002010
:102AB000184D000022110008000000000000000076
:102AC0000000000000000000000000000000000006
:102AD0000100000010000000000000000024F400CD
:102AE00000000000000000000000000000000000E6
:102AF00000000000000000000000000000000000D6
:102B000000000000000000000000000000000000C5
:102B100000000000000000000000000000000000B5
:102B200000000000000000000000000000000000A5
:102B30000000000000000000000000000000000095
:102B40000000000000000000000000000000000085
:082B5000AAAAAAAA00000000D5
:040000050800019955
:00000001FF
