:020000040800F2
:10000000C8040020AD01000867110008271000088F
:1000100065110008B9020008511500080000000031
:10002000000000000000000000000000AD14000807
:10003000BB0200080000000069110008AF140008AE
:10004000C7010008C7010008C7010008C701000870
:10005000C7010008C7010008C7010008C701000860
:10006000C7010008C7010008C7010008C701000850
:10007000C7010008C7010008C7010008C701000840
:10008000C7010008C7010008C70100080000000000
:10009000000000000000000000000000C701000890
:1000A000C7010008C7010008C7010008C701000810
:1000B000C7010008C7010008C7010008C701000800
:1000C000C7010008C7010008C7010008C7010008F0
:1000D000C7010008C7010008C701000800000000B0
:1000E000C7010008C7010008C701000800000000A0
:1000F000000000000000000000000000C701000830
:1001000000000000C7010008C7010008C70100087F
:1001100000000000000000000000000000000000DF
:10012000C7010008C7010008C7010008C70100088F
:10013000C7010008000000000000000000000000EF
:10014000000000000000000000000000C7010008DF
:10015000C7010008C7010008C7010008C70100085F
:10016000C7010008C70100080000000000000000EF
:10017000000000000000000000000000000000007F
:1001800000000000C701000800000000000000009F
:100190006D110008C7010008DFF80CD000F07AF8F4
:1001A0000048004791150008C80400200648804711
:1001B00006480047FEE7FEE7FEE7FEE7FEE7FEE74C
:1001C000FEE7FEE7FEE7FEE73515000899010008A7
:1001D0002DE9F05F0546002092469B46884606467C
:1001E000814640241BE0284641464746224600F00F
:1001F00041F853465A46C01A914110D31146184649
:10020000224600F028F82D1A67EB01084F462246D7
:100210000120002100F01FF817EB00094E41201EBD
:10022000A4F10104DFDC484631462A464346BDE8D6
:10023000F09FD2B201E000F8012B491EFBD27047BB
:100240000022F6E710B513460A4604461946FFF7A2
:10025000F0FF204610BD202A04DB203A00FA02F10C
:10026000002070479140C2F1200320FA03F31943A4
:1002700090407047202A04DB203A21FA02F0002146
:10028000704721FA02F3D040C2F1200291400843A6
:1002900019467047064C074D06E0E06840F0010340
:1002A00094E8070098471034AC42F6D3FFF778FF84
:1002B0001416000834160008FEE77047704790F8DF
:1002C0003510022903D080214165012070470521A6
:1002D00080F835100068016821F0010101600020FC
:1002E0007047000070B5044600F0E2F80546601C57
:1002F00002D004480078044400F0DAF8401BA04221
:10030000FAD370BD040000202DE9F84F00224FF011
:10031000010803254FF00F0E0B6808FA02F4234082
:10032000A34271D14E68012E05D0022E03D0112EAA
:1003300001D0122E15D18668570005FA07FC26EA6F
:100340000C06D1F80CC00CFA07FC4CEA060CC0F8FD
:1003500008C04668A6430C79C4F3001494403443A3
:100360004460C668570005FA07FC8C6826EA0C064C
:10037000BC403443C4604C68022C01D0122C13D111
:10038000D40800EB8404A346D4F8209054074FEA25
:10039000D46A0EFA0AF629EA06090E6906FA0AF67E
:1003A00046EA0906CBF8206004680E7924EA0C04BA
:1003B00006F00306BE40264306604C68E40056D5AE
:1003C0002E4C266846F480462660246822F00306F8
:1003D00004F4804400942A4C3444A446D4F80848D9
:1003E0009607370F0EFA07F6B443264EB04201D1F6
:1003F000002615E0244EB04201D1012610E0234E24
:10040000B04202D102260BE031E0214EB04201D1D0
:10041000032605E01F4EB04201D1042600E0072666
:10042000BE402643CCF808681B4E34684F689C4396
:10043000FF0300D51C433460174E361D34684F68E7
:100440009C43BF0300D51C433460134E0836346808
:100450004F689C43FF0200D51C4334600E4E0C369F
:1004600034684F689C43BF0200D51C433460521C63
:10047000102AFFF451AFBDE8F88F00004438024065
:100480000030014000000240000402400008024029
:10049000000C024000100240003C0140006908408E
:1004A00000D0012070470AB1816170470904FBE761
:1004B00001488068704700000400002002488168FD
:1004C0000278114481607047040000200B4810B589
:1004D000016841F400710160016841F480610160CC
:1004E000016841F480710160032000F06FF8002082
:1004F00000F006F800F024F8002010BD003C024097
:1005000070B50D4D04464FF47A712878B1FBF0F0C8
:100510000A490968B1FBF0F000F071FD48B9102CF0
:1005200007D200222146501E00F030F800206C60F7
:1005300070BD012070BD00000400002010000020EC
:100540000A4808B5016841F480410160006800F480
:10055000804000900548001F016841F08051016013
:10056000006800F08050009008BD00004438024050
:10057000002809DB00F01F020121914040098000A2
:1005800000F1E020C0F8001170470000F0B40E4BFD
:100590001B680C46C3F30223C3F10705042D00D9E1
:1005A0000425191D072901D2002300E0DB1E0126C6
:1005B00006FA05F1491E214099409E40761E1640DC
:1005C0003143F0BC00F0C5BF0CED00E0064900F07F
:1005D000070208684FF6FF03184040EA0220034A6A
:1005E00010430860704700000CED00E00000FA05C1
:1005F0002DE9F0470E46050065D0DFF81481D8F8E4
:100600000000F7B200F00F00B04207D288F8007087
:10061000D8F8000000F00F00B04254D128683D4CDB
:10062000810712D5400703D5206840F4E0502060D0
:100630002878000703D5206840F4604020602068D7
:10064000A96820F0F000084320602878C0072DD06A
:10065000304968680839012812D0022813D00328CD
:1006600011D00968890700292DDA216821F00301DA
:1006700001432160FFF71CFF814641F2883A0EE0FA
:1006800009688903EFE709688901ECE7FFF710FFC4
:10069000A0EB0901514502D90320BDE8F08720688D
:1006A000696800F00C00B0EB810FEFD1D8F80010B2
:1006B000404601F00F01B14207D90770006800F011
:1006C0000F00B04201D00120E7E72878400705D5A8
:1006D0002068E96820F4E05008432060287800078B
:1006E00006D52068296920F4604040EAC1002060F6
:1006F00000F018F82168084AC1F30311515CC840A2
:100700000649086006480068FFF7FAFE0020C4E7C3
:10071000003C024008380240041600081000002087
:1007200008000020154810B5006810F00C021448AD
:1007300013D01449042A0FD0082A0ED10F4C241FBD
:100740002268236802F03F025B0207D52068C0F3ED
:100750008810A0FB010106E0084610BD2168C1F326
:100760008811A1FB00010023FFF732FD2168C1F3CE
:100770000141491C4900B0FBF1F010BD08380240AE
:100780000024F40040787D012DE9F84F04006ED07C
:100790002078DFF83C93C007A9F104054AD009F19D
:1007A00004000168C1F38101012908D00068C0F389
:1007B000810002280AD1D9F80000400206D5286835
:1007C000800337D560680028E1D033E06068B0F579
:1007D000803F10D0B0F5A02F286810D020F48030D2
:1007E0002860286820F4802028606068A8B1FFF79E
:1007F0005FFE06460DE0286840F48030F4E740F4E0
:1008000080202860F7E700BFFFF752FE801B6428B6
:1008100073D828688003F7D50CE0FFF749FE064639
:1008200005E000BFFFF744FE801B6428F0D828686D
:100830008003F7D42078DFF89C8280074FF0000A0D
:100840003ED5A348001D016811F00C0F08D00068C8
:10085000C0F3810002280BD1D9F80000400207D470
:100860002868800716D5E068012800D112E02BE146
:10087000E068B8B10120C8F80000FFF719FE06468D
:1008800005E000BFFFF714FE801B0228C0D82868CF
:100890008007F7D52868216920F0F80040EAC100F8
:1008A00028600DE0C8F800A0FFF702FE064604E04D
:1008B000FFF7FEFD801B02281FD828688007F7D4A9
:1008C0002078000722D5824E83486169703671B165
:1008D00001210160FFF7ECFD074604E0FFF7E8FDAA
:1008E000C01B022809D830688007F7D50EE0C0F891
:1008F00000A0FFF7DDFD074605E082E0FFF7D8FD29
:10090000C01B02287DD830688007F7D420784007C4
:1009100068D5DFF8BCB100270BF13C0BDBF8000019
:10092000C0000BD4DBF8001041F08051CBF8001070
:10093000DBF80000012700F080500090674E30681F
:10094000C00510D4306840F480703060FFF7B0FD0F
:10095000009005E0FFF7ACFD0099401A022850D83E
:100960003068C005F6D55A4EA0686C3601280FD005
:100970000528306810D020F001003060306820F089
:1009800004003060A068B8B1FFF792FD00900FE05E
:10099000306840F00100F4E740F004003060F7E711
:1009A000FFF786FD0099411A41F28830814266D8EE
:1009B00030688007F4D50EE0FFF77AFD009007E07D
:1009C000FFF776FD0099411A41F28830814256D8EE
:1009D00030688007F4D42FB1DBF8001021F080518B
:1009E000CBF80010A069C8B33949091D0968C1F3E3
:1009F000810102294AD00228504607D0C8F8600079
:100A000000E03CE0FFF754FD04463BE04746C8F8F1
:100A10006000FFF74DFD064605E000BFFFF748FD0B
:100A2000801B02282BD828688001F7D4D4E907015D
:100A30000843A16A2A4A490802EB0141626A41EA75
:100A40008211084394F82C1040EA0161C9F80010A3
:100A500001203866FFF72CFD044606E036E000BFB3
:100A6000FFF726FD001B022809D828688001F7D56A
:100A70002CE000BFFFF71CFD001B022802D9032059
:100A8000BDE8F88F28688001F4D41FE00128F7D072
:100A9000D9F80000E26900F48001914214D1226A81
:100AA00000F03F0191420FD147F6C071626A0140E8
:100AB000914209D1A26A00F44031914204D1E16A25
:100AC00000F07060884201D00120D9E70020D7E70C
:100AD0000438024000004742800E47420070004048
:100AE0000000FFFF7047000038B5016804464A68FF
:100AF0008868C043430606D5C30704D1D3435B06C9
:100B000001D4216C05E0830708D4D3431B0605D428
:100B1000616C01B02046BDE830400847830603D52C
:100B2000430601D5C30551D4D3439B064ED4430697
:100B30000AD494F85130032B49D0636D43F0040379
:100B40006365CB688B680093830609D4636D43F0BB
:100B5000010363658B6800930B6823F040030B600F
:100B6000C00506D4606D40F00800606520688068AC
:100B70000090606D002829D02068416821F0E001D4
:100B80004160012084F85100900701D4D00722D0A1
:100B90002068416821F003014160114DE06C40B1D3
:100BA0000565E06CFFF78BFB18B1606D40F040000D
:100BB0006065A06C002809D00565A06CFFF77FFB7D
:100BC000002803D0606D40F04000606538BDC86803
:100BD0008868009038BD2046FFF784FF38BD0000CC
:100BE0001513000870B5040005D00025A56294F81F
:100BF000510010B106E0012070BD84F8505020462D
:100C000000F030F8022084F851002068016821F0DB
:100C100040010160D4E901010843D4E90312114302
:100C2000084361690843218B01F400710843E169BD
:100C30000843216A0843A16A084321680860A06943
:100C4000042101EA1040616A084321684860206875
:100C5000C16921F40061C1616565012084F851001A
:100C6000002070BDF0B587B0044614216846FFF738
:100C7000E7FA2748254F2668002225491438022321
:100C800003240525BE421BD10E6846F480560E6033
:100C9000096801F480510591016841F0010101608A
:100CA000006802AE00F001000590E020CDE90003ED
:100CB00086E8340069461748FFF726FB07B0F0BD09
:100CC000154FBE42FAD10E6846F400560E60096810
:100CD00001F400510591016841F0100101600068C4
:100CE00002AE00F0100005906420CDE9000386E814
:100CF000340069460948FFF707FB00220121542010
:100D0000FFF744FC5420FFF733FCD7E700300140E5
:100D1000443802400000024000340140001002400C
:100D2000F0B400248568134604261DB94268B2F564
:100D3000827F0DD090F85020012A0FD0012280F838
:100D4000502090F851700022012F0AD0022431E087
:100D500080F85160F0BC0A4600F0FEB80220F0BCFA
:100D6000704771B16BB180F85160426581638387D0
:100D7000C38702638286C2864264C16819B10F4983
:100D800002E0012416E00E490164B5F5004F04D1DC
:100D900001680B6823F480430B6001684B6843F0E3
:100DA00060034B6001680B685B0603D40B6843F07B
:100DB00040030B6080F850202046D0E7D91300088C
:100DC000F913000810B50A490068096888420ED175
:100DD00008484FF4805142780748FFF764FB054903
:100DE0000122BDE81040491C0148FFF799BF10BD22
:100DF0006C00002000000020000C02402DE9F84F9C
:100E0000044690F8500000271D46164689460128E2
:100E10000DD04FF0010B84F850B0FFF749FB80462E
:100E200094F85100BA46012804D002278EE002202F
:100E3000BDE8F88FB9F1000F7DD0002E7BD00320E4
:100E400084F85100C4F854A0C4F83090A686E68611
:100E5000C4F838A0A4F83CA0A4F83EA0C4F844A06C
:100E6000C4F840A0A068B0F5004F04D12068016824
:100E700041F48041016020680168490603D401689B
:100E800041F040010160E068B0F5006F606803D098
:100E900030B3012E24D040E008B1012E1CD1206BCC
:100EA00021680088C86006E020688168890709D544
:100EB000216B0988C160206B801C2063E08E401E7E
:100EC000E08609E0FFF7F4FAA0EB0800A84202D39D
:100ED000681C01D031E07DB3E08E0028E4D11FE032
:100EE000206B21680078087306E020688168890714
:100EF00009D5216B09780173206B401C2063E08EBB
:100F0000401EE08609E0FFF7D3FAA0EB0800A842F4
:100F100002D3681C01D010E075B1E08E0028E4D146
:100F200042462946204600F02BFA08B12020606591
:100F3000A06820B107E008E0FFE7032706E020688B
:100F4000C16880680090606D00B1012784F851B0DD
:100F500084F850A038466BE7F0B590F85050002464
:100F6000012D0CD0012580F8505090F851500026EA
:100F70004768012D0BD0B7F5827F06D101E0022032
:100F8000F0BD87680FB9042D01D0022429E0A9B172
:100F9000A2B19BB190F85150042D02D0052580F8E4
:100FA0005150466501638386C38682638387C38706
:100FB000C16829B10D4901640D4904E0012410E024
:100FC0000C4901640C49416401684A6842F0E0023E
:100FD0004A6001680A68520603D40A6842F0400277
:100FE0000A6080F850602046F0BD000079110008CA
:100FF000D9110008A911000809120008704710B59E
:10100000401EB0F1807F01D3012010BD4FF0E024DD
:1010100060610F21601700F09CFA0020A06107209A
:101020002061002010BDFEE72DE9F04186B01421BB
:101030006846FFF705F926480024016841F01001D1
:101040000160016801F010010591016841F0800123
:101050000160016801F080010591016841F0010122
:101060000160016801F001010591016841F008018A
:1010700001600068174F00F0080005900022102161
:101080003846FFF710FADFF85080BE1400223146D0
:101090004046FFF708FA102000900125CDE90154E1
:1010A000694638460394FFF72FF902200095CDE9F1
:1010B000014069460948FFF727F90096CDE9015438
:1010C000694640460394FFF71FF906B0BDE8F0817A
:1010D0003038024000100240000C02400000024084
:1010E0000F4810B50D4901604FF482714160002135
:1010F0008160C1604FF400720161C0E90512C161F5
:101100000162416281620A21C162FFF76BFD002822
:1011100003D0BDE81040FFF7D1B810BD003001404A
:10112000140000200E4810B50C49016000214160F8
:101130008160C1604FF400720161C0E90512016273
:10114000416281620A21C162FFF74CFD002803D091
:10115000BDE81040FFF7B2B810BD000000340140F8
:101160006C000020FEE77047704700000148FFF761
:10117000BBBC00006C0000200168C968826B118054
:10118000816B891C8163C18F491EC187C18F002972
:1011900009D101684A6822F040024A60C18E0029E4
:1011A00001D100F049B870470168097B826B11706A
:1011B000816B491C8163C18F491EC187C18F002982
:1011C00009D101684A6822F060024A60C18E002994
:1011D00001D100F031B87047016B02680988D16015
:1011E000016B891C0163C18E491EC186C18E002915
:1011F00009D101684A6822F080024A60C18F002943
:1012000001D100F019B87047016B026809781173B9
:10121000016B491C0163C18E491EC186C18E002924
:1012200009D101684A6822F080024A60C18F002912
:1012300001D100F001B8704738B50446214845F6A1
:10124000C0510068B0FBF1F0642148430090FFF703
:101250002FF902462068416821F020014160009882
:1012600088B1401E0090206880688007F7D564210F
:10127000204600F085F818B1606D40F020006065F0
:10128000A06828B108E0606D40F020006065EEE7DE
:101290002068C16880680090616D012029B184F8E0
:1012A00051002046FFF71EFC38BD94F8511084F819
:1012B00051000429204602D0FFF7A0FE38BDFFF7F9
:1012C00081FD38BD1000002038B504460068416833
:1012D00021F060014160FFF7EBF8024664212046EF
:1012E00000F020F818B1606D40F020006065A06843
:1012F00018B92068C16880680090012084F8510006
:10130000606D0028204602D0FFF7ECFB38BDFFF7E8
:1013100059FD38BD10B5806B0021C187C186FFF72C
:10132000E1FB10BDF8B5044640684FF48273984263
:1013300021D1A0684FF48065B0F5004F01D0A842DC
:101340000AD12068066826F0400606606068984268
:1013500011D1A068A8420ED000920B460022802135
:10136000204600F059F8002804D0606D40F02000BD
:1013700060650320F8BD00920B4600220121EFE7D3
:1013800038B504461248134B0068B0FBF3F04FF435
:101390007A73584300906068B0F5827F0DD10B4698
:1013A000009200228021204600F036F870B1606D76
:1013B00040F020006065032038BD009830B1401E29
:1013C000009020688068C0430006F6D5002038BD34
:1013D0001000002000366E010168C968826B118020
:1013E000816B891C8163C18F491EC187C18F002910
:1013F00001D1FFF769BF70470168097B826B1170EB
:10140000816B491C8163C18F491EC187C18F00292F
:1014100001D1FFF759BF70472DE9F0411D4617462E
:101420000E460446DDF8188008E0681C06D0FFF779
:101430003FF8A0EB0800A8420BD255B120688068A5
:1014400036EA000030D00020B842EED10020BDE8DE
:10145000F0812068416821F0E00141606068B0F5EA
:10146000827F0BD1A068B0F5004F02D0B0F5806F3D
:1014700004D12068016821F040010160A06AB0F544
:10148000005F09D12068016821F4005101602068E3
:10149000016841F400510160012084F851000020EE
:1014A00084F850000320D2E70120CDE77047FFF712
:1014B00005B8000030B593B030216846FEF7C0FE95
:1014C00014210CA8FEF7BCFE18480025016841F065
:1014D00080510160006800F080501190144801684C
:1014E00041F4404101600068022400F44040119042
:1014F00001200090000401908001CDE906400C20FD
:1015000008906020CDE9090404200B906846FFF79D
:101510003BF90CA90F2081E83100E002CDE90F056D
:1015200003210CA8FFF764F813B030BD4038024027
:10153000007000400548016841F4700101600349F2
:101540004FF00060803908607047000088ED00E0CF
:10155000FEE70907090E002804DB00F1E02080F80F
:101560000014704700F00F0000F1E02080F8141D17
:10157000704702E008C8121F08C1002AFAD170475C
:101580007047002001E001C1121F002AFBD1704703
:10159000FEF79CFFFFF78EFFFFF746FDFFF7A0FD6C
:1015A000FFF7C0FD012213491348FFF7B9FB114CA7
:1015B000124D641E4FF47A7601212846FEF76EFF25
:1015C0000128F9D13220FEF78DFE01212846FEF7D1
:1015D00065FF0128F0D1207848B10020054920702E
:1015E00033460122491E0648FFF708FCE4E70120C4
:1015F000F4E70000010000206C0000200000024021
:10160000140000200000000000000000010203049C
:101610000607080934160008000000201400000026
:10162000721500084816000814000020B4040000D9
:1016300082150008000000000100000010000000FA
:08164000000000000024F4008A
:040000050800019955
:00000001FF
